{
  "abi": [
    {
      "inputs": [
        {
          "internalType": "address[]",
          "name": "admins_",
          "type": "address[]"
        }
      ],
      "stateMutability": "nonpayable",
      "type": "constructor"
    },
    {
      "anonymous": false,
      "inputs": [
        {
          "indexed": true,
          "internalType": "bytes32",
          "name": "role",
          "type": "bytes32"
        },
        {
          "indexed": true,
          "internalType": "bytes32",
          "name": "previousAdminRole",
          "type": "bytes32"
        },
        {
          "indexed": true,
          "internalType": "bytes32",
          "name": "newAdminRole",
          "type": "bytes32"
        }
      ],
      "name": "RoleAdminChanged",
      "type": "event"
    },
    {
      "anonymous": false,
      "inputs": [
        {
          "indexed": true,
          "internalType": "bytes32",
          "name": "role",
          "type": "bytes32"
        },
        {
          "indexed": true,
          "internalType": "address",
          "name": "account",
          "type": "address"
        },
        {
          "indexed": true,
          "internalType": "address",
          "name": "sender",
          "type": "address"
        }
      ],
      "name": "RoleGranted",
      "type": "event"
    },
    {
      "anonymous": false,
      "inputs": [
        {
          "indexed": true,
          "internalType": "bytes32",
          "name": "role",
          "type": "bytes32"
        },
        {
          "indexed": true,
          "internalType": "address",
          "name": "account",
          "type": "address"
        },
        {
          "indexed": true,
          "internalType": "address",
          "name": "sender",
          "type": "address"
        }
      ],
      "name": "RoleRevoked",
      "type": "event"
    },
    {
      "inputs": [],
      "name": "ADMIN_ROLE",
      "outputs": [
        {
          "internalType": "bytes32",
          "name": "",
          "type": "bytes32"
        }
      ],
      "stateMutability": "view",
      "type": "function"
    },
    {
      "inputs": [],
      "name": "DEFAULT_ADMIN_ROLE",
      "outputs": [
        {
          "internalType": "bytes32",
          "name": "",
          "type": "bytes32"
        }
      ],
      "stateMutability": "view",
      "type": "function"
    },
    {
      "inputs": [
        {
          "internalType": "string",
          "name": "_symbol",
          "type": "string"
        },
        {
          "internalType": "uint256",
          "name": "_tier",
          "type": "uint256"
        },
        {
          "internalType": "uint256",
          "name": "_score",
          "type": "uint256"
        },
        {
          "internalType": "enum AlchemyTree.Category",
          "name": "_category",
          "type": "uint8"
        }
      ],
      "name": "addElement",
      "outputs": [],
      "stateMutability": "nonpayable",
      "type": "function"
    },
    {
      "inputs": [
        {
          "internalType": "string",
          "name": "_element1",
          "type": "string"
        },
        {
          "internalType": "string",
          "name": "_element2",
          "type": "string"
        },
        {
          "internalType": "string",
          "name": "_result",
          "type": "string"
        }
      ],
      "name": "addMerge",
      "outputs": [],
      "stateMutability": "nonpayable",
      "type": "function"
    },
    {
      "inputs": [
        {
          "internalType": "string[]",
          "name": "_symbols",
          "type": "string[]"
        },
        {
          "internalType": "uint256[]",
          "name": "_tiers",
          "type": "uint256[]"
        },
        {
          "internalType": "uint256[]",
          "name": "_scores",
          "type": "uint256[]"
        },
        {
          "internalType": "enum AlchemyTree.Category[]",
          "name": "_categories",
          "type": "uint8[]"
        }
      ],
      "name": "batchAddElements",
      "outputs": [],
      "stateMutability": "nonpayable",
      "type": "function"
    },
    {
      "inputs": [
        {
          "internalType": "string[]",
          "name": "_element1s",
          "type": "string[]"
        },
        {
          "internalType": "string[]",
          "name": "_element2s",
          "type": "string[]"
        },
        {
          "internalType": "string[]",
          "name": "_results",
          "type": "string[]"
        }
      ],
      "name": "batchAddMerges",
      "outputs": [],
      "stateMutability": "nonpayable",
      "type": "function"
    },
    {
      "inputs": [
        {
          "internalType": "string",
          "name": "_element1",
          "type": "string"
        },
        {
          "internalType": "string",
          "name": "_element2",
          "type": "string"
        }
      ],
      "name": "deleteMerge",
      "outputs": [],
      "stateMutability": "nonpayable",
      "type": "function"
    },
    {
      "inputs": [
        {
          "internalType": "string",
          "name": "_symbol",
          "type": "string"
        }
      ],
      "name": "getElement",
      "outputs": [
        {
          "components": [
            {
              "internalType": "string",
              "name": "symbol",
              "type": "string"
            },
            {
              "internalType": "uint256",
              "name": "tier",
              "type": "uint256"
            },
            {
              "internalType": "uint256",
              "name": "score",
              "type": "uint256"
            },
            {
              "internalType": "enum AlchemyTree.Category",
              "name": "category",
              "type": "uint8"
            }
          ],
          "internalType": "struct AlchemyTree.Element",
          "name": "",
          "type": "tuple"
        }
      ],
      "stateMutability": "view",
      "type": "function"
    },
    {
      "inputs": [
        {
          "internalType": "string",
          "name": "_key",
          "type": "string"
        }
      ],
      "name": "getMerge",
      "outputs": [
        {
          "internalType": "string",
          "name": "",
          "type": "string"
        }
      ],
      "stateMutability": "view",
      "type": "function"
    },
    {
      "inputs": [
        {
          "internalType": "bytes32",
          "name": "role",
          "type": "bytes32"
        }
      ],
      "name": "getRoleAdmin",
      "outputs": [
        {
          "internalType": "bytes32",
          "name": "",
          "type": "bytes32"
        }
      ],
      "stateMutability": "view",
      "type": "function"
    },
    {
      "inputs": [
        {
          "internalType": "bytes32",
          "name": "role",
          "type": "bytes32"
        },
        {
          "internalType": "address",
          "name": "account",
          "type": "address"
        }
      ],
      "name": "grantRole",
      "outputs": [],
      "stateMutability": "nonpayable",
      "type": "function"
    },
    {
      "inputs": [
        {
          "internalType": "bytes32",
          "name": "role",
          "type": "bytes32"
        },
        {
          "internalType": "address",
          "name": "account",
          "type": "address"
        }
      ],
      "name": "hasRole",
      "outputs": [
        {
          "internalType": "bool",
          "name": "",
          "type": "bool"
        }
      ],
      "stateMutability": "view",
      "type": "function"
    },
    {
      "inputs": [
        {
          "internalType": "string",
          "name": "_element1",
          "type": "string"
        },
        {
          "internalType": "string",
          "name": "_element2",
          "type": "string"
        }
      ],
      "name": "makeKey",
      "outputs": [
        {
          "internalType": "string",
          "name": "",
          "type": "string"
        }
      ],
      "stateMutability": "pure",
      "type": "function"
    },
    {
      "inputs": [
        {
          "internalType": "bytes32",
          "name": "role",
          "type": "bytes32"
        },
        {
          "internalType": "address",
          "name": "account",
          "type": "address"
        }
      ],
      "name": "renounceRole",
      "outputs": [],
      "stateMutability": "nonpayable",
      "type": "function"
    },
    {
      "inputs": [
        {
          "internalType": "bytes32",
          "name": "role",
          "type": "bytes32"
        },
        {
          "internalType": "address",
          "name": "account",
          "type": "address"
        }
      ],
      "name": "revokeRole",
      "outputs": [],
      "stateMutability": "nonpayable",
      "type": "function"
    },
    {
      "inputs": [
        {
          "internalType": "bytes4",
          "name": "interfaceId",
          "type": "bytes4"
        }
      ],
      "name": "supportsInterface",
      "outputs": [
        {
          "internalType": "bool",
          "name": "",
          "type": "bool"
        }
      ],
      "stateMutability": "view",
      "type": "function"
    }
  ],
  "bytecode": {
    "object": "0x60806040523480156200001157600080fd5b50604051620019cd380380620019cd8339810160408190526200003491620001a6565b62000041600033620000c3565b6200005c600080516020620019ad83398151915233620000c3565b60005b8151811015620000bb57620000a6600080516020620019ad83398151915283838151811062000092576200009262000278565b6020026020010151620000c360201b60201c565b80620000b2816200028e565b9150506200005f565b5050620002b8565b620000cf8282620000d3565b5050565b6000828152602081815260408083206001600160a01b038516845290915290205460ff16620000cf576000828152602081815260408083206001600160a01b03851684529091529020805460ff191660011790556200012f3390565b6001600160a01b0316816001600160a01b0316837f2f8788117e7eff1d82e926ec794901d17c78024a50270940304540a733656f0d60405160405180910390a45050565b634e487b7160e01b600052604160045260246000fd5b80516001600160a01b0381168114620001a157600080fd5b919050565b60006020808385031215620001ba57600080fd5b82516001600160401b0380821115620001d257600080fd5b818501915085601f830112620001e757600080fd5b815181811115620001fc57620001fc62000173565b8060051b604051601f19603f8301168101818110858211171562000224576200022462000173565b6040529182528482019250838101850191888311156200024357600080fd5b938501935b828510156200026c576200025c8562000189565b8452938501939285019262000248565b98975050505050505050565b634e487b7160e01b600052603260045260246000fd5b6000600019821415620002b157634e487b7160e01b600052601160045260246000fd5b5060010190565b6116e580620002c86000396000f3fe608060405234801561001057600080fd5b50600436106101005760003560e01c806375b238fc11610097578063a217fddf11610066578063a217fddf1461023a578063b13c9d4a14610242578063d2abf4a714610255578063d547741f1461026857600080fd5b806375b238fc146101ec57806375e9b7f91461020157806391d148541461021457806396151fa61461022757600080fd5b80632f2ff15d116100d35780632f2ff15d1461019357806330411c6d146101a657806336568abe146101b957806353265c69146101cc57600080fd5b806301ffc9a714610105578063094dd3e11461012d5780632391d9e314610142578063248a9ca314610162575b600080fd5b610118610113366004610ef3565b61027b565b60405190151581526020015b60405180910390f35b61014061013b366004610f69565b6102b2565b005b6101556101503660046110a6565b61043b565b6040516101249190611155565b6101856101703660046111ba565b60009081526020819052604090206001015490565b604051908152602001610124565b6101406101a13660046111d3565b61054a565b6101406101b436600461120f565b610574565b6101406101c73660046111d3565b610603565b6101df6101da36600461120f565b610681565b6040516101249190611273565b61018560008051602061169083398151915281565b61014061020f366004611286565b6106ad565b6101186102223660046111d3565b6107da565b6101df6102353660046110a6565b610803565b610185600081565b61014061025036600461134a565b6108b3565b6101406102633660046113e6565b610955565b6101406102763660046111d3565b610ac6565b60006001600160e01b03198216637965db0b60e01b14806102ac57506301ffc9a760e01b6001600160e01b03198316145b92915050565b6000805160206116908339815191526102ca81610aeb565b85841480156102d857508382145b6102fd5760405162461bcd60e51b81526004016102f490611447565b60405180910390fd5b60005b868110156104315761041f88888381811061031d5761031d61149d565b905060200281019061032f91906114b3565b8080601f0160208091040260200160405190810160405280939291908181526020018383808284376000920191909152508a92508991508590508181106103785761037861149d565b905060200281019061038a91906114b3565b8080601f0160208091040260200160405190810160405280939291908181526020018383808284376000920191909152508992508891508690508181106103d3576103d361149d565b90506020028101906103e591906114b3565b8080601f0160208091040260200160405190810160405280939291908181526020018383808284376000920191909152506108b392505050565b8061042981611510565b915050610300565b5050505050505050565b610443610de8565b600282604051610453919061152b565b908152602001604051809103902060405180608001604052908160008201805461047c90611547565b80601f01602080910402602001604051908101604052809291908181526020018280546104a890611547565b80156104f55780601f106104ca576101008083540402835291602001916104f5565b820191906000526020600020905b8154815290600101906020018083116104d857829003601f168201915b50505091835250506001820154602082015260028201546040820152600382015460609091019060ff1660098111156105305761053061113f565b60098111156105415761054161113f565b90525092915050565b60008281526020819052604090206001015461056581610aeb565b61056f8383610af8565b505050565b60008051602061169083398151915261058c81610aeb565b60006105988484610681565b905060006105a68486610681565b90506001826040516105b8919061152b565b908152602001604051809103902060006105d29190610e20565b6001816040516105e2919061152b565b908152602001604051809103902060006105fc9190610e20565b5050505050565b6001600160a01b03811633146106735760405162461bcd60e51b815260206004820152602f60248201527f416363657373436f6e74726f6c3a2063616e206f6e6c792072656e6f756e636560448201526e103937b632b9903337b91039b2b63360891b60648201526084016102f4565b61067d8282610b7c565b5050565b60608282604051602001610696929190611582565b604051602081830303815290604052905092915050565b6000805160206116908339815191526106c581610aeb565b87861480156106d357508584145b80156106de57508382145b6106fa5760405162461bcd60e51b81526004016102f490611447565b60005b888110156107ce576107bc8a8a8381811061071a5761071a61149d565b905060200281019061072c91906114b3565b8080601f0160208091040260200160405190810160405280939291908181526020018383808284376000920191909152508c92508b91508590508181106107755761077561149d565b9050602002013588888581811061078e5761078e61149d565b905060200201358787868181106107a7576107a761149d565b905060200201602081019061026391906115b1565b806107c681611510565b9150506106fd565b50505050505050505050565b6000918252602082815260408084206001600160a01b0393909316845291905290205460ff1690565b6060600182604051610815919061152b565b9081526020016040518091039020805461082e90611547565b80601f016020809104026020016040519081016040528092919081815260200182805461085a90611547565b80156108a75780601f1061087c576101008083540402835291602001916108a7565b820191906000526020600020905b81548152906001019060200180831161088a57829003601f168201915b50505050509050919050565b6000805160206116908339815191526108cb81610aeb565b60006108d78585610681565b905060006108e58587610681565b9050836001836040516108f8919061152b565b90815260200160405180910390209080519060200190610919929190610e5a565b508360018260405161092b919061152b565b9081526020016040518091039020908051906020019061094c929190610e5a565b50505050505050565b60008051602061169083398151915261096d81610aeb565b600a84106109bd5760405162461bcd60e51b815260206004820152601c60248201527f54696572206d757374206265206265747765656e203020616e6420390000000060448201526064016102f4565b60648310610a0d5760405162461bcd60e51b815260206004820152601e60248201527f53636f7265206d757374206265206265747765656e203020616e64203939000060448201526064016102f4565b6040518060800160405280868152602001858152602001848152602001836009811115610a3c57610a3c61113f565b815250600286604051610a4f919061152b565b90815260200160405180910390206000820151816000019080519060200190610a79929190610e5a565b50602082015181600101556040820151816002015560608201518160030160006101000a81548160ff02191690836009811115610ab857610ab861113f565b021790555050505050505050565b600082815260208190526040902060010154610ae181610aeb565b61056f8383610b7c565b610af58133610be1565b50565b610b0282826107da565b61067d576000828152602081815260408083206001600160a01b03851684529091529020805460ff19166001179055610b383390565b6001600160a01b0316816001600160a01b0316837f2f8788117e7eff1d82e926ec794901d17c78024a50270940304540a733656f0d60405160405180910390a45050565b610b8682826107da565b1561067d576000828152602081815260408083206001600160a01b0385168085529252808320805460ff1916905551339285917ff6391f5c32d9c69d2a47ea670b442974b53935d1edc7fd64eb21e047a839171b9190a45050565b610beb82826107da565b61067d57610c03816001600160a01b03166014610c45565b610c0e836020610c45565b604051602001610c1f9291906115cc565b60408051601f198184030181529082905262461bcd60e51b82526102f491600401611273565b60606000610c54836002611641565b610c5f906002611660565b67ffffffffffffffff811115610c7757610c77611003565b6040519080825280601f01601f191660200182016040528015610ca1576020820181803683370190505b509050600360fc1b81600081518110610cbc57610cbc61149d565b60200101906001600160f81b031916908160001a905350600f60fb1b81600181518110610ceb57610ceb61149d565b60200101906001600160f81b031916908160001a9053506000610d0f846002611641565b610d1a906001611660565b90505b6001811115610d92576f181899199a1a9b1b9c1cb0b131b232b360811b85600f1660108110610d4e57610d4e61149d565b1a60f81b828281518110610d6457610d6461149d565b60200101906001600160f81b031916908160001a90535060049490941c93610d8b81611678565b9050610d1d565b508315610de15760405162461bcd60e51b815260206004820181905260248201527f537472696e67733a20686578206c656e67746820696e73756666696369656e7460448201526064016102f4565b9392505050565b604051806080016040528060608152602001600081526020016000815260200160006009811115610e1b57610e1b61113f565b905290565b508054610e2c90611547565b6000825580601f10610e3c575050565b601f016020900490600052602060002090810190610af59190610ede565b828054610e6690611547565b90600052602060002090601f016020900481019282610e885760008555610ece565b82601f10610ea157805160ff1916838001178555610ece565b82800160010185558215610ece579182015b82811115610ece578251825591602001919060010190610eb3565b50610eda929150610ede565b5090565b5b80821115610eda5760008155600101610edf565b600060208284031215610f0557600080fd5b81356001600160e01b031981168114610de157600080fd5b60008083601f840112610f2f57600080fd5b50813567ffffffffffffffff811115610f4757600080fd5b6020830191508360208260051b8501011115610f6257600080fd5b9250929050565b60008060008060008060608789031215610f8257600080fd5b863567ffffffffffffffff80821115610f9a57600080fd5b610fa68a838b01610f1d565b90985096506020890135915080821115610fbf57600080fd5b610fcb8a838b01610f1d565b90965094506040890135915080821115610fe457600080fd5b50610ff189828a01610f1d565b979a9699509497509295939492505050565b634e487b7160e01b600052604160045260246000fd5b600082601f83011261102a57600080fd5b813567ffffffffffffffff8082111561104557611045611003565b604051601f8301601f19908116603f0116810190828211818310171561106d5761106d611003565b8160405283815286602085880101111561108657600080fd5b836020870160208301376000602085830101528094505050505092915050565b6000602082840312156110b857600080fd5b813567ffffffffffffffff8111156110cf57600080fd5b6110db84828501611019565b949350505050565b60005b838110156110fe5781810151838201526020016110e6565b8381111561110d576000848401525b50505050565b6000815180845261112b8160208601602086016110e3565b601f01601f19169290920160200192915050565b634e487b7160e01b600052602160045260246000fd5b60208152600082516080602084015261117160a0840182611113565b905060208401516040840152604084015160608401526060840151600a81106111aa57634e487b7160e01b600052602160045260246000fd5b6080939093019290925250919050565b6000602082840312156111cc57600080fd5b5035919050565b600080604083850312156111e657600080fd5b8235915060208301356001600160a01b038116811461120457600080fd5b809150509250929050565b6000806040838503121561122257600080fd5b823567ffffffffffffffff8082111561123a57600080fd5b61124686838701611019565b9350602085013591508082111561125c57600080fd5b5061126985828601611019565b9150509250929050565b602081526000610de16020830184611113565b6000806000806000806000806080898b0312156112a257600080fd5b883567ffffffffffffffff808211156112ba57600080fd5b6112c68c838d01610f1d565b909a50985060208b01359150808211156112df57600080fd5b6112eb8c838d01610f1d565b909850965060408b013591508082111561130457600080fd5b6113108c838d01610f1d565b909650945060608b013591508082111561132957600080fd5b506113368b828c01610f1d565b999c989b5096995094979396929594505050565b60008060006060848603121561135f57600080fd5b833567ffffffffffffffff8082111561137757600080fd5b61138387838801611019565b9450602086013591508082111561139957600080fd5b6113a587838801611019565b935060408601359150808211156113bb57600080fd5b506113c886828701611019565b9150509250925092565b8035600a81106113e157600080fd5b919050565b600080600080608085870312156113fc57600080fd5b843567ffffffffffffffff81111561141357600080fd5b61141f87828801611019565b945050602085013592506040850135915061143c606086016113d2565b905092959194509250565b60208082526036908201527f4d757374207061737320617272617973206f6620696e707574732074686174206040820152750c2e4ca40decc40e8d0ca40e6c2daca40d8cadccee8d60531b606082015260800190565b634e487b7160e01b600052603260045260246000fd5b6000808335601e198436030181126114ca57600080fd5b83018035915067ffffffffffffffff8211156114e557600080fd5b602001915036819003821315610f6257600080fd5b634e487b7160e01b600052601160045260246000fd5b6000600019821415611524576115246114fa565b5060010190565b6000825161153d8184602087016110e3565b9190910192915050565b600181811c9082168061155b57607f821691505b6020821081141561157c57634e487b7160e01b600052602260045260246000fd5b50919050565b600083516115948184602088016110e3565b8351908301906115a88183602088016110e3565b01949350505050565b6000602082840312156115c357600080fd5b610de1826113d2565b7f416363657373436f6e74726f6c3a206163636f756e74200000000000000000008152600083516116048160178501602088016110e3565b7001034b99036b4b9b9b4b733903937b6329607d1b60179184019182015283516116358160288401602088016110e3565b01602801949350505050565b600081600019048311821515161561165b5761165b6114fa565b500290565b60008219821115611673576116736114fa565b500190565b600081611687576116876114fa565b50600019019056fedf8b4c520ffe197c5343c6f5aec59570151ef9a492f2c624fd45ddde6135ec42a2646970667358221220bbda01c1aea8a6a2f87bcdeb4c942b202f00ec4ac37ab44e27e17d747b2e636c64736f6c634300080b0033df8b4c520ffe197c5343c6f5aec59570151ef9a492f2c624fd45ddde6135ec42",
    "linkReferences": {}
  }
}