{
  "abi": [
    {
      "inputs": [
        {
          "internalType": "address",
          "name": "nft_address",
          "type": "address"
        },
        {
          "internalType": "address",
          "name": "wETH_",
          "type": "address"
        },
        {
          "internalType": "uint256",
          "name": "market_fee",
          "type": "uint256"
        }
      ],
      "stateMutability": "nonpayable",
      "type": "constructor"
    },
    {
      "inputs": [],
      "name": "BidAlreadyExist",
      "type": "error"
    },
    {
      "inputs": [],
      "name": "BidDoesntExist",
      "type": "error"
    },
    {
      "inputs": [],
      "name": "ClosedMarket",
      "type": "error"
    },
    {
      "inputs": [],
      "name": "InactiveListing",
      "type": "error"
    },
    {
      "inputs": [],
      "name": "InsufficientValue",
      "type": "error"
    },
    {
      "inputs": [],
      "name": "InvalidOwner",
      "type": "error"
    },
    {
      "inputs": [],
      "name": "OnlyEmergency",
      "type": "error"
    },
    {
      "inputs": [],
      "name": "Percentage0to100",
      "type": "error"
    },
    {
      "inputs": [],
      "name": "Unauthorized",
      "type": "error"
    },
    {
      "anonymous": false,
      "inputs": [
        {
          "indexed": false,
          "internalType": "uint256",
          "name": "tokenId",
          "type": "uint256"
        },
        {
          "indexed": false,
          "internalType": "address",
          "name": "buyer",
          "type": "address"
        }
      ],
      "name": "AcceptBidEv",
      "type": "event"
    },
    {
      "anonymous": false,
      "inputs": [
        {
          "indexed": true,
          "internalType": "uint256",
          "name": "tokenId",
          "type": "uint256"
        },
        {
          "indexed": false,
          "internalType": "uint256",
          "name": "price",
          "type": "uint256"
        }
      ],
      "name": "AddListingEv",
      "type": "event"
    },
    {
      "anonymous": false,
      "inputs": [
        {
          "indexed": false,
          "internalType": "uint256",
          "name": "tokenId",
          "type": "uint256"
        }
      ],
      "name": "CancelBidEv",
      "type": "event"
    },
    {
      "anonymous": false,
      "inputs": [
        {
          "indexed": true,
          "internalType": "uint256",
          "name": "tokenId",
          "type": "uint256"
        }
      ],
      "name": "CancelListingEv",
      "type": "event"
    },
    {
      "anonymous": false,
      "inputs": [
        {
          "indexed": false,
          "internalType": "uint256",
          "name": "tokenId",
          "type": "uint256"
        },
        {
          "indexed": false,
          "internalType": "uint256",
          "name": "bidPrice",
          "type": "uint256"
        },
        {
          "indexed": false,
          "internalType": "address",
          "name": "owner",
          "type": "address"
        }
      ],
      "name": "CreateBidEv",
      "type": "event"
    },
    {
      "anonymous": false,
      "inputs": [
        {
          "indexed": true,
          "internalType": "uint256",
          "name": "tokenId",
          "type": "uint256"
        },
        {
          "indexed": false,
          "internalType": "uint256",
          "name": "price",
          "type": "uint256"
        }
      ],
      "name": "FulfillListingEv",
      "type": "event"
    },
    {
      "anonymous": false,
      "inputs": [
        {
          "indexed": true,
          "internalType": "address",
          "name": "newOwner",
          "type": "address"
        }
      ],
      "name": "OwnerUpdated",
      "type": "event"
    },
    {
      "anonymous": false,
      "inputs": [
        {
          "indexed": false,
          "internalType": "uint256",
          "name": "tokenId",
          "type": "uint256"
        },
        {
          "indexed": false,
          "internalType": "uint256",
          "name": "bidPrice",
          "type": "uint256"
        }
      ],
      "name": "UpdateBidEv",
      "type": "event"
    },
    {
      "anonymous": false,
      "inputs": [
        {
          "indexed": true,
          "internalType": "uint256",
          "name": "tokenId",
          "type": "uint256"
        },
        {
          "indexed": false,
          "internalType": "uint256",
          "name": "price",
          "type": "uint256"
        }
      ],
      "name": "UpdateListingEv",
      "type": "event"
    },
    {
      "inputs": [
        {
          "internalType": "uint256",
          "name": "tokenId",
          "type": "uint256"
        },
        {
          "internalType": "address",
          "name": "buyer",
          "type": "address"
        }
      ],
      "name": "acceptBid",
      "outputs": [],
      "stateMutability": "nonpayable",
      "type": "function"
    },
    {
      "inputs": [
        {
          "internalType": "uint256",
          "name": "_tokenId",
          "type": "uint256"
        },
        {
          "internalType": "uint256",
          "name": "_price",
          "type": "uint256"
        }
      ],
      "name": "addListing",
      "outputs": [],
      "stateMutability": "nonpayable",
      "type": "function"
    },
    {
      "inputs": [
        {
          "internalType": "uint256",
          "name": "newMarketFee",
          "type": "uint256"
        }
      ],
      "name": "adjustFees",
      "outputs": [],
      "stateMutability": "nonpayable",
      "type": "function"
    },
    {
      "inputs": [],
      "name": "allowEmergencyDelisting",
      "outputs": [],
      "stateMutability": "nonpayable",
      "type": "function"
    },
    {
      "inputs": [
        {
          "internalType": "uint256",
          "name": "",
          "type": "uint256"
        },
        {
          "internalType": "address",
          "name": "",
          "type": "address"
        }
      ],
      "name": "bids",
      "outputs": [
        {
          "internalType": "uint256",
          "name": "bidPrice",
          "type": "uint256"
        },
        {
          "internalType": "bool",
          "name": "active",
          "type": "bool"
        }
      ],
      "stateMutability": "view",
      "type": "function"
    },
    {
      "inputs": [
        {
          "internalType": "uint256",
          "name": "tokenId",
          "type": "uint256"
        }
      ],
      "name": "cancelBid",
      "outputs": [],
      "stateMutability": "nonpayable",
      "type": "function"
    },
    {
      "inputs": [
        {
          "internalType": "address[]",
          "name": "bidders",
          "type": "address[]"
        },
        {
          "internalType": "uint256",
          "name": "tokenId",
          "type": "uint256"
        }
      ],
      "name": "cancelBidsOnBurnedTokenIds",
      "outputs": [],
      "stateMutability": "nonpayable",
      "type": "function"
    },
    {
      "inputs": [
        {
          "internalType": "uint256",
          "name": "_tokenId",
          "type": "uint256"
        }
      ],
      "name": "cancelListing",
      "outputs": [],
      "stateMutability": "nonpayable",
      "type": "function"
    },
    {
      "inputs": [],
      "name": "closeMarket",
      "outputs": [],
      "stateMutability": "nonpayable",
      "type": "function"
    },
    {
      "inputs": [
        {
          "internalType": "uint256",
          "name": "_tokenId",
          "type": "uint256"
        }
      ],
      "name": "emergencyDelist",
      "outputs": [],
      "stateMutability": "nonpayable",
      "type": "function"
    },
    {
      "inputs": [],
      "name": "emergencyDelisting",
      "outputs": [
        {
          "internalType": "bool",
          "name": "",
          "type": "bool"
        }
      ],
      "stateMutability": "view",
      "type": "function"
    },
    {
      "inputs": [
        {
          "internalType": "uint256",
          "name": "_tokenId",
          "type": "uint256"
        }
      ],
      "name": "fulfillListing",
      "outputs": [],
      "stateMutability": "nonpayable",
      "type": "function"
    },
    {
      "inputs": [
        {
          "internalType": "uint256[]",
          "name": "_tokenIds",
          "type": "uint256[]"
        }
      ],
      "name": "fullfillMultipleListings",
      "outputs": [],
      "stateMutability": "nonpayable",
      "type": "function"
    },
    {
      "inputs": [
        {
          "internalType": "uint256",
          "name": "from",
          "type": "uint256"
        },
        {
          "internalType": "uint256",
          "name": "length",
          "type": "uint256"
        }
      ],
      "name": "getListings",
      "outputs": [
        {
          "components": [
            {
              "internalType": "address",
              "name": "owner",
              "type": "address"
            },
            {
              "internalType": "bool",
              "name": "active",
              "type": "bool"
            },
            {
              "internalType": "uint256",
              "name": "price",
              "type": "uint256"
            }
          ],
          "internalType": "struct CloudMetropolisMarket.Listing[]",
          "name": "listing",
          "type": "tuple[]"
        }
      ],
      "stateMutability": "view",
      "type": "function"
    },
    {
      "inputs": [
        {
          "internalType": "uint256",
          "name": "_tokenId",
          "type": "uint256"
        }
      ],
      "name": "getTokenOwner",
      "outputs": [
        {
          "internalType": "address",
          "name": "",
          "type": "address"
        }
      ],
      "stateMutability": "view",
      "type": "function"
    },
    {
      "inputs": [],
      "name": "isMarketOpen",
      "outputs": [
        {
          "internalType": "bool",
          "name": "",
          "type": "bool"
        }
      ],
      "stateMutability": "view",
      "type": "function"
    },
    {
      "inputs": [
        {
          "internalType": "uint256",
          "name": "",
          "type": "uint256"
        }
      ],
      "name": "listings",
      "outputs": [
        {
          "internalType": "address",
          "name": "owner",
          "type": "address"
        },
        {
          "internalType": "bool",
          "name": "active",
          "type": "bool"
        },
        {
          "internalType": "uint256",
          "name": "price",
          "type": "uint256"
        }
      ],
      "stateMutability": "view",
      "type": "function"
    },
    {
      "inputs": [],
      "name": "marketCut",
      "outputs": [
        {
          "internalType": "uint256",
          "name": "",
          "type": "uint256"
        }
      ],
      "stateMutability": "view",
      "type": "function"
    },
    {
      "inputs": [],
      "name": "marketFeePercent",
      "outputs": [
        {
          "internalType": "uint256",
          "name": "",
          "type": "uint256"
        }
      ],
      "stateMutability": "view",
      "type": "function"
    },
    {
      "inputs": [],
      "name": "nftContract",
      "outputs": [
        {
          "internalType": "address",
          "name": "",
          "type": "address"
        }
      ],
      "stateMutability": "view",
      "type": "function"
    },
    {
      "inputs": [],
      "name": "openMarket",
      "outputs": [],
      "stateMutability": "nonpayable",
      "type": "function"
    },
    {
      "inputs": [],
      "name": "owner",
      "outputs": [
        {
          "internalType": "address",
          "name": "",
          "type": "address"
        }
      ],
      "stateMutability": "view",
      "type": "function"
    },
    {
      "inputs": [
        {
          "internalType": "uint256",
          "name": "tokenId",
          "type": "uint256"
        },
        {
          "internalType": "uint256",
          "name": "amount",
          "type": "uint256"
        }
      ],
      "name": "placeBid",
      "outputs": [],
      "stateMutability": "nonpayable",
      "type": "function"
    },
    {
      "inputs": [
        {
          "internalType": "address",
          "name": "_newNFTcontract",
          "type": "address"
        }
      ],
      "name": "setNFTContract",
      "outputs": [],
      "stateMutability": "nonpayable",
      "type": "function"
    },
    {
      "inputs": [
        {
          "internalType": "address",
          "name": "_newOwner",
          "type": "address"
        }
      ],
      "name": "setOwner",
      "outputs": [],
      "stateMutability": "nonpayable",
      "type": "function"
    },
    {
      "inputs": [
        {
          "internalType": "uint256",
          "name": "tokenId",
          "type": "uint256"
        },
        {
          "internalType": "uint256",
          "name": "newPrice",
          "type": "uint256"
        }
      ],
      "name": "updateBid",
      "outputs": [],
      "stateMutability": "nonpayable",
      "type": "function"
    },
    {
      "inputs": [
        {
          "internalType": "uint256",
          "name": "_tokenId",
          "type": "uint256"
        },
        {
          "internalType": "uint256",
          "name": "_price",
          "type": "uint256"
        }
      ],
      "name": "updateListing",
      "outputs": [],
      "stateMutability": "nonpayable",
      "type": "function"
    },
    {
      "inputs": [],
      "name": "wETH",
      "outputs": [
        {
          "internalType": "address",
          "name": "",
          "type": "address"
        }
      ],
      "stateMutability": "view",
      "type": "function"
    },
    {
      "inputs": [],
      "name": "withdraw",
      "outputs": [],
      "stateMutability": "nonpayable",
      "type": "function"
    },
    {
      "inputs": [],
      "name": "withdrawableBalance",
      "outputs": [
        {
          "internalType": "uint256",
          "name": "value",
          "type": "uint256"
        }
      ],
      "stateMutability": "view",
      "type": "function"
    }
  ],
  "bytecode": {
    "object": "0x60a0604052600060028190556003556004805461ffff191690553480156200002657600080fd5b5060405162002522380380620025228339810160408190526200004991620000ca565b606481118062000057575060005b15620000765760405163c0dfb3e560e01b815260040160405180910390fd5b60018054336001600160a01b031991821617909155600080549091166001600160a01b03948516179055600355166080526200010b565b80516001600160a01b0381168114620000c557600080fd5b919050565b600080600060608486031215620000e057600080fd5b620000eb84620000ad565b9250620000fb60208501620000ad565b9150604084015190509250925092565b6080516123a062000182600039600081816104890152818161080801528181610acc01528181610e4101528181610f3e01528181610ff00152818161118a015281816112b101528181611398015281816115540152818161161a0152818161194c015281816119fe0152611d7c01526123a06000f3fe608060405234801561001057600080fd5b50600436106101da5760003560e01c8063836cf6e911610104578063aca20f07116100a2578063d56d229d11610071578063d56d229d14610407578063de74e57b1461041a578063e62d64f61461047c578063f24286211461048457600080fd5b8063aca20f07146103b0578063c4b04518146103d2578063c511ed5e146103f2578063d4ce85f3146103fa57600080fd5b80639703ef35116100de5780639703ef351461036e578063a5cd761f14610381578063a7ccabdf14610394578063aaf51b7e146103a757600080fd5b8063836cf6e91461031d5780638da5cb5b1461033057806391f764191461035b57600080fd5b80633912fc851161017c57806360365e0c1161014b57806360365e0c146102dc578063607133a0146102ef578063632541b4146102f75780637e8359971461030a57600080fd5b80633912fc85146102645780633ccfd60b146102775780633f1ffcec1461027f57806357c90de5146102c957600080fd5b806314cb423f116101b857806314cb423f1461021a578063305a67a81461022d578063319ec7fd146102405780633606f5b91461025c57600080fd5b80630179ea88146101df57806302068664146101f457806313af403514610207575b600080fd5b6101f26101ed36600461203e565b6104ab565b005b6101f2610202366004612078565b61058f565b6101f26102153660046120a8565b6108bf565b6101f2610228366004612118565b610933565b6101f261023b366004612164565b610bd6565b61024960025481565b6040519081526020015b60405180910390f35b6101f2610d3d565b6101f2610272366004612164565b610d76565b6101f261113b565b6102b461028d366004612078565b60056020908152600092835260408084209091529082529020805460019091015460ff1682565b60408051928352901515602083015201610253565b6101f26102d736600461203e565b611203565b6101f26102ea36600461203e565b6114a7565b6101f26116eb565b6101f2610305366004612164565b611726565b6101f261031836600461217d565b611807565b6101f261032b36600461203e565b611b64565b600154610343906001600160a01b031681565b6040516001600160a01b039091168152602001610253565b6101f2610369366004612164565b611c74565b6101f261037c366004612164565b611cce565b61034361038f366004612164565b611e21565b6101f26103a23660046120a8565b611ece565b61024960035481565b6004546103c290610100900460ff1681565b6040519015158152602001610253565b6103e56103e036600461203e565b611f1a565b60405161025391906121bf565b6101f2612008565b6004546103c29060ff1681565b600054610343906001600160a01b031681565b610457610428366004612164565b600660205260009081526040902080546001909101546001600160a01b03821691600160a01b900460ff169083565b604080516001600160a01b039094168452911515602084015290820152606001610253565b600254610249565b6103437f000000000000000000000000000000000000000000000000000000000000000081565b60045460ff166104ce57604051636b411a7f60e11b815260040160405180910390fd5b600082815260066020526040902054600160a01b900460ff166105045760405163aa41c14760e01b815260040160405180910390fd5b6000828152600660205260409020546001600160a01b0316331461053b576040516349e27cff60e01b815260040160405180910390fd5b600082815260066020526040908190206001018290555182907fc722c86d457c19a3b0a9a34f38bfefc93a93ebe5ef3d2e0e5eba1b1de4636dbf906105839084815260200190565b60405180910390a25050565b60045460ff166105b257604051636b411a7f60e11b815260040160405180910390fd5b60006105bd83611e21565b9050336001600160a01b038216146105e8576040516349e27cff60e01b815260040160405180910390fd5b60008381526005602090815260408083206001600160a01b038616845290915290206001015460ff1661062e57604051630bd46a3f60e21b815260040160405180910390fd5b60008381526005602090815260408083206001600160a01b0386168452909152812080548282556001909101805460ff191690556003549091906064906106759084612239565b61067f9190612258565b9050600061068d828461227a565b905081600260008282546106a19190612291565b9091555050600086815260066020526040902054600160a01b900460ff161561077b5760008681526006602052604080822080546001600160a81b0319168155600101829055905490516323b872dd60e01b81526001600160a01b03909116906323b872dd9061071990309089908b906004016122a9565b600060405180830381600087803b15801561073357600080fd5b505af1158015610747573d6000803e3d6000fd5b50506040518892507f7de7556a16e38538b177be3ce0ca95ecb5b05b8b9d2a99524814f5a96c611f449150600090a26107e2565b6000546040516323b872dd60e01b81526001600160a01b03909116906323b872dd906107af90879089908b906004016122a9565b600060405180830381600087803b1580156107c957600080fd5b505af11580156107dd573d6000803e3d6000fd5b505050505b60405163a9059cbb60e01b81526001600160a01b038581166004830152602482018390527f0000000000000000000000000000000000000000000000000000000000000000169063a9059cbb906044016020604051808303816000875af1158015610851573d6000803e3d6000fd5b505050506040513d601f19601f8201168201806040525081019061087591906122cd565b50604080518781526001600160a01b03871660208201527f91594e8331c06f34ac23cba9df8cbff0f4830fa8ea80fa64c9180527ecce04db910160405180910390a1505050505050565b6001546001600160a01b031633146108e9576040516282b42960e81b815260040160405180910390fd5b600180546001600160a01b0319166001600160a01b0383169081179091556040517f4ffd725fc4a22075e9ec71c59edf9c38cdeb588a91b24fc5b61388c5be41282b90600090a250565b600080546040516331a9108f60e11b8152600481018490526001600160a01b0390911690636352211e90602401602060405180830381865afa15801561097d573d6000803e3d6000fd5b505050506040513d601f19601f820116820180604052508101906109a191906122ef565b6001600160a01b031603610bd15760005b82811015610bcf576000828152600560205260408120908585848181106109db576109db61230c565b90506020020160208101906109f091906120a8565b6001600160a01b0316815260208101919091526040016000206001015460ff1615610bbf57600082815260056020526040812081868685818110610a3657610a3661230c565b9050602002016020810190610a4b91906120a8565b6001600160a01b0316815260208082019290925260409081016000908120548682526005909352908120919250868685818110610a8a57610a8a61230c565b9050602002016020810190610a9f91906120a8565b6001600160a01b03908116825260208201929092526040016000908120908155600101805460ff191690557f00000000000000000000000000000000000000000000000000000000000000001663a9059cbb868685818110610b0357610b0361230c565b9050602002016020810190610b1891906120a8565b6040516001600160e01b031960e084901b1681526001600160a01b039091166004820152602481018490526044016020604051808303816000875af1158015610b65573d6000803e3d6000fd5b505050506040513d601f19601f82011682018060405250810190610b8991906122cd565b506040518381527fea584e561a81fee408b492e6fd7d8a696c3ae338e97b07d5d0809f53731d31c99060200160405180910390a1505b610bc881612322565b90506109b2565b505b505050565b60045460ff16610bf957604051636b411a7f60e11b815260040160405180910390fd5b600081815260066020908152604091829020825160608101845281546001600160a01b0381168252600160a01b900460ff16151592810183905260019091015492810192909252610c5d5760405163aa41c14760e01b815260040160405180910390fd5b80516001600160a01b03163314610c87576040516349e27cff60e01b815260040160405180910390fd5b60008281526006602052604080822080546001600160a81b03191681556001018290559054825191516323b872dd60e01b81526001600160a01b03909116916323b872dd91610cdc91309187906004016122a9565b600060405180830381600087803b158015610cf657600080fd5b505af1158015610d0a573d6000803e3d6000fd5b50506040518492507f7de7556a16e38538b177be3ce0ca95ecb5b05b8b9d2a99524814f5a96c611f449150600090a25050565b6001546001600160a01b03163314610d67576040516282b42960e81b815260040160405180910390fd5b6004805460ff19166001179055565b60045460ff16610d9957604051636b411a7f60e11b815260040160405180910390fd5b600081815260066020908152604091829020825160608101845281546001600160a01b0381168252600160a01b900460ff16151592810183905260019091015492810192909252610dfd5760405163aa41c14760e01b815260040160405180910390fd5b80516001600160a01b03163303610e27576040516349e27cff60e01b815260040160405180910390fd5b60408181015190516370a0823160e01b81523360048201527f00000000000000000000000000000000000000000000000000000000000000006001600160a01b0316906370a0823190602401602060405180830381865afa158015610e90573d6000803e3d6000fd5b505050506040513d601f19601f82011682018060405250810190610eb4919061233b565b1015610ed35760405163044044a560e21b815260040160405180910390fd5b60008281526006602052604080822080546001600160a81b03191681556001019190915560035490820151606491610f0a91612239565b610f149190612258565b60026000828254610f259190612291565b9091555050805160035460408301516001600160a01b037f000000000000000000000000000000000000000000000000000000000000000016926323b872dd923392606491610f7391612239565b610f7d9190612258565b8560400151610f8c919061227a565b6040518463ffffffff1660e01b8152600401610faa939291906122a9565b6020604051808303816000875af1158015610fc9573d6000803e3d6000fd5b505050506040513d601f19601f82011682018060405250810190610fed91906122cd565b507f00000000000000000000000000000000000000000000000000000000000000006001600160a01b03166323b872dd3330606460035486604001516110339190612239565b61103d9190612258565b6040518463ffffffff1660e01b815260040161105b939291906122a9565b6020604051808303816000875af115801561107a573d6000803e3d6000fd5b505050506040513d601f19601f8201168201806040525081019061109e91906122cd565b506000546040516323b872dd60e01b81526001600160a01b03909116906323b872dd906110d3903090339087906004016122a9565b600060405180830381600087803b1580156110ed57600080fd5b505af1158015611101573d6000803e3d6000fd5b50505050817f118430d9f151031f078659241fee1f24ab174df05b0a79d498c842619dba52a8826040015160405161058391815260200190565b6001546001600160a01b03163314611165576040516282b42960e81b815260040160405180910390fd5b60028054600090915560405163a9059cbb60e01b8152336004820152602481018290527f00000000000000000000000000000000000000000000000000000000000000006001600160a01b03169063a9059cbb906044016020604051808303816000875af11580156111db573d6000803e3d6000fd5b505050506040513d601f19601f820116820180604052508101906111ff91906122cd565b5050565b60045460ff1661122657604051636b411a7f60e11b815260040160405180910390fd5b600061123183611e21565b90506001600160a01b038116330361129a5760405162461bcd60e51b815260206004820152602160248201527f43616e277420706c6163652062696420666f72206f776e20626c75657072696e6044820152601d60fa1b60648201526084015b60405180910390fd5b6040516370a0823160e01b815233600482015282907f00000000000000000000000000000000000000000000000000000000000000006001600160a01b0316906370a0823190602401602060405180830381865afa158015611300573d6000803e3d6000fd5b505050506040513d601f19601f82011682018060405250810190611324919061233b565b10156113435760405163044044a560e21b815260040160405180910390fd5b600083815260056020908152604080832033845290915290206001015460ff161561138157604051639874ffed60e01b815260040160405180910390fd5b6040516323b872dd60e01b81526001600160a01b037f000000000000000000000000000000000000000000000000000000000000000016906323b872dd906113d1903390309087906004016122a9565b6020604051808303816000875af11580156113f0573d6000803e3d6000fd5b505050506040513d601f19601f8201168201806040525081019061141491906122cd565b50604080518082018252838152600160208083018281526000888152600583528581203382528352859020935184555192909101805460ff19169215159290921790915581518581529081018490526001600160a01b038316918101919091527fe326f7d5efb071741624b020ca7f125e12df1af0c31afbf1039ebe65f16aec6e906060015b60405180910390a1505050565b60045460ff166114ca57604051636b411a7f60e11b815260040160405180910390fd5b600082815260056020908152604080832033845290915290206001015460ff1661150757604051630bd46a3f60e21b815260040160405180910390fd5b6000828152600560209081526040808320338452909152902054818111156115ec576000611535838361227a565b60405163a9059cbb60e01b8152336004820152602481018290529091507f00000000000000000000000000000000000000000000000000000000000000006001600160a01b03169063a9059cbb906044016020604051808303816000875af11580156115a5573d6000803e3d6000fd5b505050506040513d601f19601f820116820180604052508101906115c991906122cd565b5050600083815260056020908152604080832033845290915290208290556116b5565b808211156116b5576000611600828461227a565b6040516323b872dd60e01b81529091506001600160a01b037f000000000000000000000000000000000000000000000000000000000000000016906323b872dd90611653903390309086906004016122a9565b6020604051808303816000875af1158015611672573d6000803e3d6000fd5b505050506040513d601f19601f8201168201806040525081019061169691906122cd565b5050600083815260056020908152604080832033845290915290208290555b60408051848152602081018490527f83c8e0b73bf38748bb97125009e5470bfeb1fe206e9051acac268cdfd35a9c37910161149a565b6001546001600160a01b03163314611715576040516282b42960e81b815260040160405180910390fd5b6004805461ff001916610100179055565b600454610100900460ff168015611740575060045460ff16155b6117815760405162461bcd60e51b815260206004820152601260248201527127b7363c9034b71032b6b2b933b2b731bc9760711b6044820152606401611291565b6000818152600660208181526040808420815160608101835281546001600160a01b03808216835260ff600160a01b83041615158387015260018401805484870152898952969095526001600160a81b031916909155928490559254825193516323b872dd60e01b815292939116916323b872dd91610cdc9130919087906004016122a9565b60045460ff1661182a57604051636b411a7f60e11b815260040160405180910390fd5b60005b81811015610bd15760008383838181106118495761184961230c565b60209081029290920135600081815260068452604090819020815160608101835281546001600160a01b038116808352600160a01b90910460ff161515968201969096526001909101549181019190915290935091330390506118bf576040516349e27cff60e01b815260040160405180910390fd5b80602001516118e15760405163aa41c14760e01b815260040160405180910390fd5b60008281526006602052604080822080546001600160a81b0319168155600101919091556003549082015160649161191891612239565b6119229190612258565b600260008282546119339190612291565b9091555050805160035460408301516001600160a01b037f000000000000000000000000000000000000000000000000000000000000000016926323b872dd92339260649161198191612239565b61198b9190612258565b856040015161199a919061227a565b6040518463ffffffff1660e01b81526004016119b8939291906122a9565b6020604051808303816000875af11580156119d7573d6000803e3d6000fd5b505050506040513d601f19601f820116820180604052508101906119fb91906122cd565b507f00000000000000000000000000000000000000000000000000000000000000006001600160a01b03166323b872dd333060646003548660400151611a419190612239565b611a4b9190612258565b6040518463ffffffff1660e01b8152600401611a69939291906122a9565b6020604051808303816000875af1158015611a88573d6000803e3d6000fd5b505050506040513d601f19601f82011682018060405250810190611aac91906122cd565b506000546040516323b872dd60e01b81526001600160a01b03909116906323b872dd90611ae1903090339087906004016122a9565b600060405180830381600087803b158015611afb57600080fd5b505af1158015611b0f573d6000803e3d6000fd5b50505050817f118430d9f151031f078659241fee1f24ab174df05b0a79d498c842619dba52a88260400151604051611b4991815260200190565b60405180910390a2505080611b5d90612322565b905061182d565b60045460ff16611b8757604051636b411a7f60e11b815260040160405180910390fd5b604080516060810182523380825260016020808401828152848601878152600089815260069093528683209551865492511515600160a01b026001600160a81b03199093166001600160a01b0391821617929092178655519490920193909355915492516323b872dd60e01b815292909116916323b872dd91611c1091309087906004016122a9565b600060405180830381600087803b158015611c2a57600080fd5b505af1158015611c3e573d6000803e3d6000fd5b50505050817f6e5f7e638173bd2538c34c8893d3046f00726f1d62961c9407f64808e7f77f9b8260405161058391815260200190565b6001546001600160a01b03163314611c9e576040516282b42960e81b815260040160405180910390fd5b6064811180611cab575060005b15611cc95760405163c0dfb3e560e01b815260040160405180910390fd5b600355565b60045460ff16611cf157604051636b411a7f60e11b815260040160405180910390fd5b600081815260056020908152604080832033845290915290206001015460ff16611d2e57604051630bd46a3f60e21b815260040160405180910390fd5b60008181526005602090815260408083203380855292528083208054938155600101805460ff191690555163a9059cbb60e01b81526004810191909152602481018290526001600160a01b037f0000000000000000000000000000000000000000000000000000000000000000169063a9059cbb906044016020604051808303816000875af1158015611dc5573d6000803e3d6000fd5b505050506040513d601f19601f82011682018060405250810190611de991906122cd565b506040518281527fea584e561a81fee408b492e6fd7d8a696c3ae338e97b07d5d0809f53731d31c99060200160405180910390a15050565b600081815260066020526040812054600160a01b900460ff1615611e5b57506000908152600660205260409020546001600160a01b031690565b6000546040516331a9108f60e11b8152600481018490526001600160a01b0390911690636352211e90602401602060405180830381865afa158015611ea4573d6000803e3d6000fd5b505050506040513d601f19601f82011682018060405250810190611ec891906122ef565b92915050565b6001546001600160a01b03163314611ef8576040516282b42960e81b815260040160405180910390fd5b600080546001600160a01b0319166001600160a01b0392909216919091179055565b606060008267ffffffffffffffff811115611f3757611f37612354565b604051908082528060200260200182016040528015611f8257816020015b6040805160608101825260008082526020808301829052928201528252600019909201910181611f555790505b50905060005b8381101561200057808501600090815260066020908152604091829020825160608101845281546001600160a01b0381168252600160a01b900460ff1615159281019290925260010154918101919091528251839083908110611fed57611fed61230c565b6020908102919091010152600101611f88565b509392505050565b6001546001600160a01b03163314612032576040516282b42960e81b815260040160405180910390fd5b6004805460ff19169055565b6000806040838503121561205157600080fd5b50508035926020909101359150565b6001600160a01b038116811461207557600080fd5b50565b6000806040838503121561208b57600080fd5b82359150602083013561209d81612060565b809150509250929050565b6000602082840312156120ba57600080fd5b81356120c581612060565b9392505050565b60008083601f8401126120de57600080fd5b50813567ffffffffffffffff8111156120f657600080fd5b6020830191508360208260051b850101111561211157600080fd5b9250929050565b60008060006040848603121561212d57600080fd5b833567ffffffffffffffff81111561214457600080fd5b612150868287016120cc565b909790965060209590950135949350505050565b60006020828403121561217657600080fd5b5035919050565b6000806020838503121561219057600080fd5b823567ffffffffffffffff8111156121a757600080fd5b6121b3858286016120cc565b90969095509350505050565b602080825282518282018190526000919060409081850190868401855b8281101561221657815180516001600160a01b031685528681015115158786015285015185850152606090930192908501906001016121dc565b5091979650505050505050565b634e487b7160e01b600052601160045260246000fd5b600081600019048311821515161561225357612253612223565b500290565b60008261227557634e487b7160e01b600052601260045260246000fd5b500490565b60008282101561228c5761228c612223565b500390565b600082198211156122a4576122a4612223565b500190565b6001600160a01b039384168152919092166020820152604081019190915260600190565b6000602082840312156122df57600080fd5b815180151581146120c557600080fd5b60006020828403121561230157600080fd5b81516120c581612060565b634e487b7160e01b600052603260045260246000fd5b60006001820161233457612334612223565b5060010190565b60006020828403121561234d57600080fd5b5051919050565b634e487b7160e01b600052604160045260246000fdfea2646970667358221220113618f7d381c62f694dc92c35960ecdb6ddbb10ea0b1b90d9a34aacb6d19ada64736f6c634300080d0033",
    "linkReferences": {}
  }
}