{
  "abi": [
    {
      "inputs": [
        {
          "internalType": "address",
          "name": "nft_address",
          "type": "address"
        },
        {
          "internalType": "address",
          "name": "wETH_",
          "type": "address"
        },
        {
          "internalType": "uint256",
          "name": "market_fee",
          "type": "uint256"
        }
      ],
      "stateMutability": "nonpayable",
      "type": "constructor"
    },
    {
      "inputs": [],
      "name": "BidAlreadyExist",
      "type": "error"
    },
    {
      "inputs": [],
      "name": "BidDoesntExist",
      "type": "error"
    },
    {
      "inputs": [],
      "name": "ClosedMarket",
      "type": "error"
    },
    {
      "inputs": [],
      "name": "InactiveListing",
      "type": "error"
    },
    {
      "inputs": [],
      "name": "InsufficientValue",
      "type": "error"
    },
    {
      "inputs": [],
      "name": "InvalidOwner",
      "type": "error"
    },
    {
      "inputs": [],
      "name": "OnlyEmergency",
      "type": "error"
    },
    {
      "inputs": [],
      "name": "Percentage0to100",
      "type": "error"
    },
    {
      "inputs": [],
      "name": "Unauthorized",
      "type": "error"
    },
    {
      "anonymous": false,
      "inputs": [
        {
          "indexed": false,
          "internalType": "uint256",
          "name": "tokenId",
          "type": "uint256"
        },
        {
          "indexed": false,
          "internalType": "address",
          "name": "buyer",
          "type": "address"
        }
      ],
      "name": "AcceptBidEv",
      "type": "event"
    },
    {
      "anonymous": false,
      "inputs": [
        {
          "indexed": true,
          "internalType": "uint256",
          "name": "tokenId",
          "type": "uint256"
        },
        {
          "indexed": false,
          "internalType": "uint256",
          "name": "price",
          "type": "uint256"
        }
      ],
      "name": "AddListingEv",
      "type": "event"
    },
    {
      "anonymous": false,
      "inputs": [
        {
          "indexed": false,
          "internalType": "uint256",
          "name": "tokenId",
          "type": "uint256"
        }
      ],
      "name": "CancelBidEv",
      "type": "event"
    },
    {
      "anonymous": false,
      "inputs": [
        {
          "indexed": true,
          "internalType": "uint256",
          "name": "tokenId",
          "type": "uint256"
        }
      ],
      "name": "CancelListingEv",
      "type": "event"
    },
    {
      "anonymous": false,
      "inputs": [
        {
          "indexed": false,
          "internalType": "uint256",
          "name": "tokenId",
          "type": "uint256"
        },
        {
          "indexed": false,
          "internalType": "uint256",
          "name": "bidPrice",
          "type": "uint256"
        },
        {
          "indexed": false,
          "internalType": "address",
          "name": "owner",
          "type": "address"
        }
      ],
      "name": "CreateBidEv",
      "type": "event"
    },
    {
      "anonymous": false,
      "inputs": [
        {
          "indexed": true,
          "internalType": "uint256",
          "name": "tokenId",
          "type": "uint256"
        },
        {
          "indexed": false,
          "internalType": "uint256",
          "name": "price",
          "type": "uint256"
        }
      ],
      "name": "FulfillListingEv",
      "type": "event"
    },
    {
      "anonymous": false,
      "inputs": [
        {
          "indexed": true,
          "internalType": "address",
          "name": "newOwner",
          "type": "address"
        }
      ],
      "name": "OwnerUpdated",
      "type": "event"
    },
    {
      "anonymous": false,
      "inputs": [
        {
          "indexed": false,
          "internalType": "uint256",
          "name": "tokenId",
          "type": "uint256"
        },
        {
          "indexed": false,
          "internalType": "uint256",
          "name": "bidPrice",
          "type": "uint256"
        }
      ],
      "name": "UpdateBidEv",
      "type": "event"
    },
    {
      "anonymous": false,
      "inputs": [
        {
          "indexed": true,
          "internalType": "uint256",
          "name": "tokenId",
          "type": "uint256"
        },
        {
          "indexed": false,
          "internalType": "uint256",
          "name": "price",
          "type": "uint256"
        }
      ],
      "name": "UpdateListingEv",
      "type": "event"
    },
    {
      "stateMutability": "payable",
      "type": "fallback"
    },
    {
      "inputs": [
        {
          "internalType": "uint256",
          "name": "tokenId",
          "type": "uint256"
        },
        {
          "internalType": "address",
          "name": "buyer",
          "type": "address"
        }
      ],
      "name": "acceptBid",
      "outputs": [],
      "stateMutability": "nonpayable",
      "type": "function"
    },
    {
      "inputs": [
        {
          "internalType": "uint256",
          "name": "_tokenId",
          "type": "uint256"
        },
        {
          "internalType": "uint256",
          "name": "_price",
          "type": "uint256"
        }
      ],
      "name": "addListing",
      "outputs": [],
      "stateMutability": "nonpayable",
      "type": "function"
    },
    {
      "inputs": [
        {
          "internalType": "uint256",
          "name": "newMarketFee",
          "type": "uint256"
        }
      ],
      "name": "adjustFees",
      "outputs": [],
      "stateMutability": "nonpayable",
      "type": "function"
    },
    {
      "inputs": [],
      "name": "allowEmergencyDelisting",
      "outputs": [],
      "stateMutability": "nonpayable",
      "type": "function"
    },
    {
      "inputs": [
        {
          "internalType": "uint256",
          "name": "",
          "type": "uint256"
        },
        {
          "internalType": "address",
          "name": "",
          "type": "address"
        }
      ],
      "name": "bids",
      "outputs": [
        {
          "internalType": "uint256",
          "name": "bidPrice",
          "type": "uint256"
        },
        {
          "internalType": "address",
          "name": "bidder",
          "type": "address"
        },
        {
          "internalType": "bool",
          "name": "active",
          "type": "bool"
        }
      ],
      "stateMutability": "view",
      "type": "function"
    },
    {
      "inputs": [
        {
          "internalType": "uint256",
          "name": "tokenId",
          "type": "uint256"
        }
      ],
      "name": "cancelBid",
      "outputs": [],
      "stateMutability": "nonpayable",
      "type": "function"
    },
    {
      "inputs": [
        {
          "internalType": "address[]",
          "name": "bidders",
          "type": "address[]"
        },
        {
          "internalType": "uint256",
          "name": "tokenId",
          "type": "uint256"
        }
      ],
      "name": "cancelBidsOnBurnedTokenIds",
      "outputs": [],
      "stateMutability": "nonpayable",
      "type": "function"
    },
    {
      "inputs": [
        {
          "internalType": "uint256",
          "name": "_tokenId",
          "type": "uint256"
        }
      ],
      "name": "cancelListing",
      "outputs": [],
      "stateMutability": "nonpayable",
      "type": "function"
    },
    {
      "inputs": [],
      "name": "closeMarket",
      "outputs": [],
      "stateMutability": "nonpayable",
      "type": "function"
    },
    {
      "inputs": [
        {
          "internalType": "uint256",
          "name": "_tokenId",
          "type": "uint256"
        }
      ],
      "name": "emergencyDelist",
      "outputs": [],
      "stateMutability": "nonpayable",
      "type": "function"
    },
    {
      "inputs": [],
      "name": "emergencyDelisting",
      "outputs": [
        {
          "internalType": "bool",
          "name": "",
          "type": "bool"
        }
      ],
      "stateMutability": "view",
      "type": "function"
    },
    {
      "inputs": [
        {
          "internalType": "uint256",
          "name": "_tokenId",
          "type": "uint256"
        }
      ],
      "name": "fulfillListing",
      "outputs": [],
      "stateMutability": "nonpayable",
      "type": "function"
    },
    {
      "inputs": [
        {
          "internalType": "uint256[]",
          "name": "_tokenIds",
          "type": "uint256[]"
        }
      ],
      "name": "fullfillMultipleListings",
      "outputs": [],
      "stateMutability": "nonpayable",
      "type": "function"
    },
    {
      "inputs": [
        {
          "internalType": "uint256",
          "name": "id",
          "type": "uint256"
        }
      ],
      "name": "getListingId",
      "outputs": [
        {
          "internalType": "uint256",
          "name": "tokenId",
          "type": "uint256"
        }
      ],
      "stateMutability": "pure",
      "type": "function"
    },
    {
      "inputs": [
        {
          "internalType": "uint256",
          "name": "from",
          "type": "uint256"
        },
        {
          "internalType": "uint256",
          "name": "length",
          "type": "uint256"
        }
      ],
      "name": "getListings",
      "outputs": [
        {
          "components": [
            {
              "internalType": "address",
              "name": "owner",
              "type": "address"
            },
            {
              "internalType": "bool",
              "name": "active",
              "type": "bool"
            },
            {
              "internalType": "uint256",
              "name": "price",
              "type": "uint256"
            }
          ],
          "internalType": "struct YATMarket.Listing[]",
          "name": "listing",
          "type": "tuple[]"
        }
      ],
      "stateMutability": "view",
      "type": "function"
    },
    {
      "inputs": [
        {
          "internalType": "address",
          "name": "user",
          "type": "address"
        }
      ],
      "name": "getTokenIdsWithBids",
      "outputs": [
        {
          "internalType": "uint256[]",
          "name": "tokenIds",
          "type": "uint256[]"
        }
      ],
      "stateMutability": "view",
      "type": "function"
    },
    {
      "inputs": [
        {
          "internalType": "uint256",
          "name": "_tokenId",
          "type": "uint256"
        }
      ],
      "name": "getTokenOwner",
      "outputs": [
        {
          "internalType": "address",
          "name": "",
          "type": "address"
        }
      ],
      "stateMutability": "view",
      "type": "function"
    },
    {
      "inputs": [
        {
          "internalType": "address",
          "name": "user",
          "type": "address"
        },
        {
          "internalType": "uint256[]",
          "name": "tokenIds",
          "type": "uint256[]"
        }
      ],
      "name": "getUserBids",
      "outputs": [
        {
          "components": [
            {
              "internalType": "uint256",
              "name": "bidPrice",
              "type": "uint256"
            },
            {
              "internalType": "address",
              "name": "bidder",
              "type": "address"
            },
            {
              "internalType": "bool",
              "name": "active",
              "type": "bool"
            }
          ],
          "internalType": "struct YATMarket.Bid[]",
          "name": "bidsList",
          "type": "tuple[]"
        }
      ],
      "stateMutability": "view",
      "type": "function"
    },
    {
      "inputs": [],
      "name": "isMarketOpen",
      "outputs": [
        {
          "internalType": "bool",
          "name": "",
          "type": "bool"
        }
      ],
      "stateMutability": "view",
      "type": "function"
    },
    {
      "inputs": [
        {
          "internalType": "uint256",
          "name": "",
          "type": "uint256"
        }
      ],
      "name": "listings",
      "outputs": [
        {
          "internalType": "address",
          "name": "owner",
          "type": "address"
        },
        {
          "internalType": "bool",
          "name": "active",
          "type": "bool"
        },
        {
          "internalType": "uint256",
          "name": "price",
          "type": "uint256"
        }
      ],
      "stateMutability": "view",
      "type": "function"
    },
    {
      "inputs": [],
      "name": "marketCut",
      "outputs": [
        {
          "internalType": "uint256",
          "name": "",
          "type": "uint256"
        }
      ],
      "stateMutability": "view",
      "type": "function"
    },
    {
      "inputs": [],
      "name": "marketFeePercent",
      "outputs": [
        {
          "internalType": "uint256",
          "name": "",
          "type": "uint256"
        }
      ],
      "stateMutability": "view",
      "type": "function"
    },
    {
      "inputs": [],
      "name": "openMarket",
      "outputs": [],
      "stateMutability": "nonpayable",
      "type": "function"
    },
    {
      "inputs": [],
      "name": "owner",
      "outputs": [
        {
          "internalType": "address",
          "name": "",
          "type": "address"
        }
      ],
      "stateMutability": "view",
      "type": "function"
    },
    {
      "inputs": [
        {
          "internalType": "uint256",
          "name": "tokenId",
          "type": "uint256"
        },
        {
          "internalType": "uint256",
          "name": "amount",
          "type": "uint256"
        }
      ],
      "name": "placeBid",
      "outputs": [],
      "stateMutability": "nonpayable",
      "type": "function"
    },
    {
      "inputs": [
        {
          "internalType": "address",
          "name": "_newNFTcontract",
          "type": "address"
        }
      ],
      "name": "setNFTContract",
      "outputs": [],
      "stateMutability": "nonpayable",
      "type": "function"
    },
    {
      "inputs": [
        {
          "internalType": "address",
          "name": "_newOwner",
          "type": "address"
        }
      ],
      "name": "setOwner",
      "outputs": [],
      "stateMutability": "nonpayable",
      "type": "function"
    },
    {
      "inputs": [
        {
          "internalType": "uint256",
          "name": "tokenId",
          "type": "uint256"
        },
        {
          "internalType": "uint256",
          "name": "newPrice",
          "type": "uint256"
        }
      ],
      "name": "updateBid",
      "outputs": [],
      "stateMutability": "nonpayable",
      "type": "function"
    },
    {
      "inputs": [
        {
          "internalType": "uint256",
          "name": "_tokenId",
          "type": "uint256"
        },
        {
          "internalType": "uint256",
          "name": "_price",
          "type": "uint256"
        }
      ],
      "name": "updateListing",
      "outputs": [],
      "stateMutability": "nonpayable",
      "type": "function"
    },
    {
      "inputs": [
        {
          "internalType": "address",
          "name": "",
          "type": "address"
        },
        {
          "internalType": "uint256",
          "name": "",
          "type": "uint256"
        }
      ],
      "name": "userToBids",
      "outputs": [
        {
          "internalType": "uint256",
          "name": "",
          "type": "uint256"
        }
      ],
      "stateMutability": "view",
      "type": "function"
    },
    {
      "inputs": [],
      "name": "withdraw",
      "outputs": [],
      "stateMutability": "nonpayable",
      "type": "function"
    },
    {
      "inputs": [],
      "name": "withdrawableBalance",
      "outputs": [
        {
          "internalType": "uint256",
          "name": "value",
          "type": "uint256"
        }
      ],
      "stateMutability": "view",
      "type": "function"
    },
    {
      "stateMutability": "payable",
      "type": "receive"
    }
  ],
  "bytecode": {
    "object": "0x60a0604052600060038190556004805461ffff191690556005553480156200002657600080fd5b5060405162002a5638038062002a568339810160408190526200004991620000ca565b606481118062000057575060005b15620000765760405163c0dfb3e560e01b815260040160405180910390fd5b60078054336001600160a01b031991821617909155600080549091166001600160a01b03948516179055600355166080526200010b565b80516001600160a01b0381168114620000c557600080fd5b919050565b600080600060608486031215620000e057600080fd5b620000eb84620000ad565b9250620000fb60208501620000ad565b9150604084015190509250925092565b6080516128db6200017b600039600081816109f401528181610cc50152818161103a01528181611137015281816111e901528181611383015281816114ef01528181611598015281816117a90152818161186f01528181611ba901528181611c5b0152611fe601526128db6000f3fe6080604052600436106101cf5760003560e01c80638da5cb5b116100f6578063c4b045181161008f578063d737819911610061578063d7378199146105bd578063de74e57b146105dd578063df92afbf1461064c578063e62d64f61461067957005b8063c4b0451814610543578063c511ed5e14610570578063cc85a55b14610585578063d4ce85f3146105a357005b8063a7ccabdf116100c8578063a7ccabdf146104b1578063aaf51b7e146104d1578063aca20f07146104e7578063b20f2edb1461051657005b80638da5cb5b1461041957806391f76419146104515780639703ef3514610471578063a5cd761f1461049157005b80633ccfd60b11610168578063607133a01161013a578063607133a0146103a4578063632541b4146103b95780637e835997146103d9578063836cf6e9146103f957005b80633ccfd60b146102d65780633f1ffcec146102eb57806357c90de51461036457806360365e0c1461038457005b8063305a67a8116101a1578063305a67a814610258578063319ec7fd146102785780633606f5b9146102a15780633912fc85146102b657005b80630179ea88146101d857806302068664146101f857806313af40351461021857806314cb423f1461023857005b366101d657005b005b3480156101e457600080fd5b506101d66101f336600461245d565b61068e565b34801561020457600080fd5b506101d6610213366004612497565b610772565b34801561022457600080fd5b506101d66102333660046124c7565b610aab565b34801561024457600080fd5b506101d6610253366004612537565b610b1f565b34801561026457600080fd5b506101d6610273366004612583565b610dcf565b34801561028457600080fd5b5061028e60055481565b6040519081526020015b60405180910390f35b3480156102ad57600080fd5b506101d6610f36565b3480156102c257600080fd5b506101d66102d1366004612583565b610f6f565b3480156102e257600080fd5b506101d6611334565b3480156102f757600080fd5b5061033f610306366004612497565b6002602090815260009283526040808420909152908252902080546001909101546001600160a01b03811690600160a01b900460ff1683565b604080519384526001600160a01b039092166020840152151590820152606001610298565b34801561037057600080fd5b506101d661037f36600461245d565b6113fc565b34801561039057600080fd5b506101d661039f36600461245d565b6116f5565b3480156103b057600080fd5b506101d6611948565b3480156103c557600080fd5b506101d66103d4366004612583565b611983565b3480156103e557600080fd5b506101d66103f436600461259c565b611a64565b34801561040557600080fd5b506101d661041436600461245d565b611dc1565b34801561042557600080fd5b50600754610439906001600160a01b031681565b6040516001600160a01b039091168152602001610298565b34801561045d57600080fd5b506101d661046c366004612583565b611ed1565b34801561047d57600080fd5b506101d661048c366004612583565b611f2b565b34801561049d57600080fd5b506104396104ac366004612583565b61208b565b3480156104bd57600080fd5b506101d66104cc3660046124c7565b612138565b3480156104dd57600080fd5b5061028e60035481565b3480156104f357600080fd5b5060045461050690610100900460ff1681565b6040519015158152602001610298565b34801561052257600080fd5b506105366105313660046125de565b612184565b6040516102989190612633565b34801561054f57600080fd5b5061056361055e36600461245d565b6122a4565b6040516102989190612697565b34801561057c57600080fd5b506101d661238a565b34801561059157600080fd5b5061028e6105a0366004612583565b90565b3480156105af57600080fd5b506004546105069060ff1681565b3480156105c957600080fd5b5061028e6105d83660046126ee565b6123c0565b3480156105e957600080fd5b506106276105f8366004612583565b600660205260009081526040902080546001909101546001600160a01b03821691600160a01b900460ff169083565b604080516001600160a01b039094168452911515602084015290820152606001610298565b34801561065857600080fd5b5061066c6106673660046124c7565b6123f1565b604051610298919061271a565b34801561068557600080fd5b5060055461028e565b60045460ff166106b157604051636b411a7f60e11b815260040160405180910390fd5b600082815260066020526040902054600160a01b900460ff166106e75760405163aa41c14760e01b815260040160405180910390fd5b6000828152600660205260409020546001600160a01b0316331461071e576040516349e27cff60e01b815260040160405180910390fd5b600082815260066020526040908190206001018290555182907fc722c86d457c19a3b0a9a34f38bfefc93a93ebe5ef3d2e0e5eba1b1de4636dbf906107669084815260200190565b60405180910390a25050565b60045460ff1661079557604051636b411a7f60e11b815260040160405180910390fd5b60006107a08361208b565b9050336001600160a01b038216146107cb576040516349e27cff60e01b815260040160405180910390fd5b60008381526002602090815260408083206001600160a01b0386168452909152902060010154600160a01b900460ff1661081857604051630bd46a3f60e21b815260040160405180910390fd5b60008381526002602090815260408083206001600160a01b038616845282528083208054848255600190910180546001600160a81b0319169055868452600690925290912054600160a01b900460ff16156109245760008481526006602052604080822080546001600160a81b0319168155600101829055905490516323b872dd60e01b81526001600160a01b03909116906323b872dd906108c29030908790899060040161275e565b600060405180830381600087803b1580156108dc57600080fd5b505af11580156108f0573d6000803e3d6000fd5b50506040518692507f7de7556a16e38538b177be3ce0ca95ecb5b05b8b9d2a99524814f5a96c611f449150600090a261098b565b6000546040516323b872dd60e01b81526001600160a01b03909116906323b872dd906109589085908790899060040161275e565b600060405180830381600087803b15801561097257600080fd5b505af1158015610986573d6000803e3d6000fd5b505050505b600060646003548361099d9190612798565b6109a791906127b7565b905060006109b582846127d9565b905081600560008282546109c991906127f0565b909155505060405163a9059cbb60e01b81526001600160a01b038581166004830152602482018390527f0000000000000000000000000000000000000000000000000000000000000000169063a9059cbb906044016020604051808303816000875af1158015610a3d573d6000803e3d6000fd5b505050506040513d601f19601f82011682018060405250810190610a619190612808565b50604080518781526001600160a01b03871660208201527f91594e8331c06f34ac23cba9df8cbff0f4830fa8ea80fa64c9180527ecce04db910160405180910390a1505050505050565b6007546001600160a01b03163314610ad5576040516282b42960e81b815260040160405180910390fd5b600780546001600160a01b0319166001600160a01b0383169081179091556040517f4ffd725fc4a22075e9ec71c59edf9c38cdeb588a91b24fc5b61388c5be41282b90600090a250565b600080546040516331a9108f60e11b8152600481018490526001600160a01b0390911690636352211e90602401602060405180830381865afa158015610b69573d6000803e3d6000fd5b505050506040513d601f19601f82011682018060405250810190610b8d919061282a565b6001600160a01b031603610dca5760005b82811015610dc857600082815260026020526040812090858584818110610bc757610bc7612847565b9050602002016020810190610bdc91906124c7565b6001600160a01b03168152602081019190915260400160002060010154600160a01b900460ff1615610db857600082815260026020526040812081868685818110610c2957610c29612847565b9050602002016020810190610c3e91906124c7565b6001600160a01b0316815260208082019290925260409081016000908120548682526002909352908120919250868685818110610c7d57610c7d612847565b9050602002016020810190610c9291906124c7565b6001600160a01b0390811682526020820192909252604001600090812090815560010180546001600160a81b03191690557f00000000000000000000000000000000000000000000000000000000000000001663a9059cbb868685818110610cfc57610cfc612847565b9050602002016020810190610d1191906124c7565b6040516001600160e01b031960e084901b1681526001600160a01b039091166004820152602481018490526044016020604051808303816000875af1158015610d5e573d6000803e3d6000fd5b505050506040513d601f19601f82011682018060405250810190610d829190612808565b506040518381527fea584e561a81fee408b492e6fd7d8a696c3ae338e97b07d5d0809f53731d31c99060200160405180910390a1505b610dc18161285d565b9050610b9e565b505b505050565b60045460ff16610df257604051636b411a7f60e11b815260040160405180910390fd5b600081815260066020908152604091829020825160608101845281546001600160a01b0381168252600160a01b900460ff16151592810183905260019091015492810192909252610e565760405163aa41c14760e01b815260040160405180910390fd5b80516001600160a01b03163314610e80576040516349e27cff60e01b815260040160405180910390fd5b60008281526006602052604080822080546001600160a81b03191681556001018290559054825191516323b872dd60e01b81526001600160a01b03909116916323b872dd91610ed5913091879060040161275e565b600060405180830381600087803b158015610eef57600080fd5b505af1158015610f03573d6000803e3d6000fd5b50506040518492507f7de7556a16e38538b177be3ce0ca95ecb5b05b8b9d2a99524814f5a96c611f449150600090a25050565b6007546001600160a01b03163314610f60576040516282b42960e81b815260040160405180910390fd5b6004805460ff19166001179055565b60045460ff16610f9257604051636b411a7f60e11b815260040160405180910390fd5b600081815260066020908152604091829020825160608101845281546001600160a01b0381168252600160a01b900460ff16151592810183905260019091015492810192909252610ff65760405163aa41c14760e01b815260040160405180910390fd5b80516001600160a01b03163303611020576040516349e27cff60e01b815260040160405180910390fd5b60408181015190516370a0823160e01b81523360048201527f00000000000000000000000000000000000000000000000000000000000000006001600160a01b0316906370a0823190602401602060405180830381865afa158015611089573d6000803e3d6000fd5b505050506040513d601f19601f820116820180604052508101906110ad9190612876565b10156110cc5760405163044044a560e21b815260040160405180910390fd5b60008281526006602052604080822080546001600160a81b0319168155600101919091556003549082015160649161110391612798565b61110d91906127b7565b6005600082825461111e91906127f0565b9091555050805160035460408301516001600160a01b037f000000000000000000000000000000000000000000000000000000000000000016926323b872dd92339260649161116c91612798565b61117691906127b7565b856040015161118591906127d9565b6040518463ffffffff1660e01b81526004016111a39392919061275e565b6020604051808303816000875af11580156111c2573d6000803e3d6000fd5b505050506040513d601f19601f820116820180604052508101906111e69190612808565b507f00000000000000000000000000000000000000000000000000000000000000006001600160a01b03166323b872dd33306064600354866040015161122c9190612798565b61123691906127b7565b6040518463ffffffff1660e01b81526004016112549392919061275e565b6020604051808303816000875af1158015611273573d6000803e3d6000fd5b505050506040513d601f19601f820116820180604052508101906112979190612808565b506000546040516323b872dd60e01b81526001600160a01b03909116906323b872dd906112cc9030903390879060040161275e565b600060405180830381600087803b1580156112e657600080fd5b505af11580156112fa573d6000803e3d6000fd5b50505050817f118430d9f151031f078659241fee1f24ab174df05b0a79d498c842619dba52a8826040015160405161076691815260200190565b6007546001600160a01b0316331461135e576040516282b42960e81b815260040160405180910390fd5b60058054600090915560405163a9059cbb60e01b8152336004820152602481018290527f00000000000000000000000000000000000000000000000000000000000000006001600160a01b03169063a9059cbb906044016020604051808303816000875af11580156113d4573d6000803e3d6000fd5b505050506040513d601f19601f820116820180604052508101906113f89190612808565b5050565b60045460ff1661141f57604051636b411a7f60e11b815260040160405180910390fd5b600061142a8361208b565b90506001600160a01b03811633036114935760405162461bcd60e51b815260206004820152602160248201527f43616e277420706c6163652062696420666f72206f776e20626c75657072696e6044820152601d60fa1b60648201526084015b60405180910390fd5b6000838152600260209081526040808320338452909152902060010154600160a01b900460ff16156114d857604051639874ffed60e01b815260040160405180910390fd5b6040516370a0823160e01b815233600482015282907f00000000000000000000000000000000000000000000000000000000000000006001600160a01b0316906370a0823190602401602060405180830381865afa15801561153e573d6000803e3d6000fd5b505050506040513d601f19601f820116820180604052508101906115629190612876565b10156115815760405163044044a560e21b815260040160405180910390fd5b6040516323b872dd60e01b81526001600160a01b037f000000000000000000000000000000000000000000000000000000000000000016906323b872dd906115d19033903090879060040161275e565b6020604051808303816000875af11580156115f0573d6000803e3d6000fd5b505050506040513d601f19601f820116820180604052508101906116149190612808565b5060408051606081018252838152336020808301828152600184860181815260008a8152600285528781209581529490935292859020935184555192909101805491511515600160a01b026001600160a81b03199092166001600160a01b039390931692909217179055517fe326f7d5efb071741624b020ca7f125e12df1af0c31afbf1039ebe65f16aec6e906116ca9085908590859092835260208301919091526001600160a01b0316604082015260600190565b60405180910390a1505033600090815260016020818152604083208054928301815583529091200155565b60045460ff1661171857604051636b411a7f60e11b815260040160405180910390fd5b6000828152600260209081526040808320338452909152902060010154600160a01b900460ff1661175c57604051630bd46a3f60e21b815260040160405180910390fd5b60008281526002602090815260408083203384529091529020548181111561184157600061178a83836127d9565b60405163a9059cbb60e01b8152336004820152602481018290529091507f00000000000000000000000000000000000000000000000000000000000000006001600160a01b03169063a9059cbb906044016020604051808303816000875af11580156117fa573d6000803e3d6000fd5b505050506040513d601f19601f8201168201806040525081019061181e9190612808565b50506000838152600260209081526040808320338452909152902082905561190a565b8082111561190a57600061185582846127d9565b6040516323b872dd60e01b81529091506001600160a01b037f000000000000000000000000000000000000000000000000000000000000000016906323b872dd906118a89033903090869060040161275e565b6020604051808303816000875af11580156118c7573d6000803e3d6000fd5b505050506040513d601f19601f820116820180604052508101906118eb9190612808565b5050600083815260026020908152604080832033845290915290208290555b60408051848152602081018490527f83c8e0b73bf38748bb97125009e5470bfeb1fe206e9051acac268cdfd35a9c37910160405180910390a1505050565b6007546001600160a01b03163314611972576040516282b42960e81b815260040160405180910390fd5b6004805461ff001916610100179055565b600454610100900460ff16801561199d575060045460ff16155b6119de5760405162461bcd60e51b815260206004820152601260248201527127b7363c9034b71032b6b2b933b2b731bc9760711b604482015260640161148a565b6000818152600660208181526040808420815160608101835281546001600160a01b03808216835260ff600160a01b83041615158387015260018401805484870152898952969095526001600160a81b031916909155928490559254825193516323b872dd60e01b815292939116916323b872dd91610ed591309190879060040161275e565b60045460ff16611a8757604051636b411a7f60e11b815260040160405180910390fd5b60005b81811015610dca576000838383818110611aa657611aa6612847565b60209081029290920135600081815260068452604090819020815160608101835281546001600160a01b038116808352600160a01b90910460ff16151596820196909652600190910154918101919091529093509133039050611b1c576040516349e27cff60e01b815260040160405180910390fd5b8060200151611b3e5760405163aa41c14760e01b815260040160405180910390fd5b60008281526006602052604080822080546001600160a81b03191681556001019190915560035490820151606491611b7591612798565b611b7f91906127b7565b60056000828254611b9091906127f0565b9091555050805160035460408301516001600160a01b037f000000000000000000000000000000000000000000000000000000000000000016926323b872dd923392606491611bde91612798565b611be891906127b7565b8560400151611bf791906127d9565b6040518463ffffffff1660e01b8152600401611c159392919061275e565b6020604051808303816000875af1158015611c34573d6000803e3d6000fd5b505050506040513d601f19601f82011682018060405250810190611c589190612808565b507f00000000000000000000000000000000000000000000000000000000000000006001600160a01b03166323b872dd333060646003548660400151611c9e9190612798565b611ca891906127b7565b6040518463ffffffff1660e01b8152600401611cc69392919061275e565b6020604051808303816000875af1158015611ce5573d6000803e3d6000fd5b505050506040513d601f19601f82011682018060405250810190611d099190612808565b506000546040516323b872dd60e01b81526001600160a01b03909116906323b872dd90611d3e9030903390879060040161275e565b600060405180830381600087803b158015611d5857600080fd5b505af1158015611d6c573d6000803e3d6000fd5b50505050817f118430d9f151031f078659241fee1f24ab174df05b0a79d498c842619dba52a88260400151604051611da691815260200190565b60405180910390a2505080611dba9061285d565b9050611a8a565b60045460ff16611de457604051636b411a7f60e11b815260040160405180910390fd5b604080516060810182523380825260016020808401828152848601878152600089815260069093528683209551865492511515600160a01b026001600160a81b03199093166001600160a01b0391821617929092178655519490920193909355915492516323b872dd60e01b815292909116916323b872dd91611e6d913090879060040161275e565b600060405180830381600087803b158015611e8757600080fd5b505af1158015611e9b573d6000803e3d6000fd5b50505050817f6e5f7e638173bd2538c34c8893d3046f00726f1d62961c9407f64808e7f77f9b8260405161076691815260200190565b6007546001600160a01b03163314611efb576040516282b42960e81b815260040160405180910390fd5b6064811180611f08575060005b15611f265760405163c0dfb3e560e01b815260040160405180910390fd5b600355565b60045460ff16611f4e57604051636b411a7f60e11b815260040160405180910390fd5b6000818152600260209081526040808320338452909152902060010154600160a01b900460ff16611f9257604051630bd46a3f60e21b815260040160405180910390fd5b6000818152600260209081526040808320338085529252808320805493815560010180546001600160a81b03191690555163a9059cbb60e01b81526004810191909152602481018290526001600160a01b037f0000000000000000000000000000000000000000000000000000000000000000169063a9059cbb906044016020604051808303816000875af115801561202f573d6000803e3d6000fd5b505050506040513d601f19601f820116820180604052508101906120539190612808565b506040518281527fea584e561a81fee408b492e6fd7d8a696c3ae338e97b07d5d0809f53731d31c99060200160405180910390a15050565b600081815260066020526040812054600160a01b900460ff16156120c557506000908152600660205260409020546001600160a01b031690565b6000546040516331a9108f60e11b8152600481018490526001600160a01b0390911690636352211e90602401602060405180830381865afa15801561210e573d6000803e3d6000fd5b505050506040513d601f19601f82011682018060405250810190612132919061282a565b92915050565b6007546001600160a01b03163314612162576040516282b42960e81b815260040160405180910390fd5b600080546001600160a01b0319166001600160a01b0392909216919091179055565b60608167ffffffffffffffff81111561219f5761219f61288f565b6040519080825280602002602001820160405280156121ea57816020015b60408051606081018252600080825260208083018290529282015282526000199092019101816121bd5790505b50905060005b8281101561229c57600084848381811061220c5761220c612847565b6020908102929092013560008181526002845260408082206001600160a01b038c811684529086529181902081516060810183528154815260019091015492831695810195909552600160a01b90910460ff1615159084015285519093508591508490811061227d5761227d612847565b60200260200101819052505080806122949061285d565b9150506121f0565b509392505050565b606060008267ffffffffffffffff8111156122c1576122c161288f565b60405190808252806020026020018201604052801561230c57816020015b60408051606081018252600080825260208083018290529282015282526000199092019101816122df5790505b50905060005b8381101561229c57808501600090815260066020908152604091829020825160608101845281546001600160a01b0381168252600160a01b900460ff161515928101929092526001015491810191909152825183908390811061237757612377612847565b6020908102919091010152600101612312565b6007546001600160a01b031633146123b4576040516282b42960e81b815260040160405180910390fd5b6004805460ff19169055565b600160205281600052604060002081815481106123dc57600080fd5b90600052602060002001600091509150505481565b6001600160a01b03811660009081526001602090815260409182902080548351818402810184019094528084526060939283018282801561245157602002820191906000526020600020905b81548152602001906001019080831161243d575b50505050509050919050565b6000806040838503121561247057600080fd5b50508035926020909101359150565b6001600160a01b038116811461249457600080fd5b50565b600080604083850312156124aa57600080fd5b8235915060208301356124bc8161247f565b809150509250929050565b6000602082840312156124d957600080fd5b81356124e48161247f565b9392505050565b60008083601f8401126124fd57600080fd5b50813567ffffffffffffffff81111561251557600080fd5b6020830191508360208260051b850101111561253057600080fd5b9250929050565b60008060006040848603121561254c57600080fd5b833567ffffffffffffffff81111561256357600080fd5b61256f868287016124eb565b909790965060209590950135949350505050565b60006020828403121561259557600080fd5b5035919050565b600080602083850312156125af57600080fd5b823567ffffffffffffffff8111156125c657600080fd5b6125d2858286016124eb565b90969095509350505050565b6000806000604084860312156125f357600080fd5b83356125fe8161247f565b9250602084013567ffffffffffffffff81111561261a57600080fd5b612626868287016124eb565b9497909650939450505050565b602080825282518282018190526000919060409081850190868401855b8281101561268a57815180518552868101516001600160a01b03168786015285015115158585015260609093019290850190600101612650565b5091979650505050505050565b602080825282518282018190526000919060409081850190868401855b8281101561268a57815180516001600160a01b031685528681015115158786015285015185850152606090930192908501906001016126b4565b6000806040838503121561270157600080fd5b823561270c8161247f565b946020939093013593505050565b6020808252825182820181905260009190848201906040850190845b8181101561275257835183529284019291840191600101612736565b50909695505050505050565b6001600160a01b039384168152919092166020820152604081019190915260600190565b634e487b7160e01b600052601160045260246000fd5b60008160001904831182151516156127b2576127b2612782565b500290565b6000826127d457634e487b7160e01b600052601260045260246000fd5b500490565b6000828210156127eb576127eb612782565b500390565b6000821982111561280357612803612782565b500190565b60006020828403121561281a57600080fd5b815180151581146124e457600080fd5b60006020828403121561283c57600080fd5b81516124e48161247f565b634e487b7160e01b600052603260045260246000fd5b60006001820161286f5761286f612782565b5060010190565b60006020828403121561288857600080fd5b5051919050565b634e487b7160e01b600052604160045260246000fdfea2646970667358221220196baee00727bc375b414b747f0147ae7652306ef19e12c579310a5fddf1e52664736f6c634300080d0033",
    "linkReferences": {}
  }
}