{
  "abi": [
    {
      "inputs": [
        {
          "internalType": "address",
          "name": "nft_address",
          "type": "address"
        },
        {
          "internalType": "uint256",
          "name": "market_fee",
          "type": "uint256"
        }
      ],
      "stateMutability": "nonpayable",
      "type": "constructor"
    },
    {
      "inputs": [],
      "name": "ClosedMarket",
      "type": "error"
    },
    {
      "inputs": [],
      "name": "InactiveListing",
      "type": "error"
    },
    {
      "inputs": [],
      "name": "InsufficientValue",
      "type": "error"
    },
    {
      "inputs": [],
      "name": "InvalidOwner",
      "type": "error"
    },
    {
      "inputs": [],
      "name": "OnlyEmergency",
      "type": "error"
    },
    {
      "inputs": [],
      "name": "Percentage0to100",
      "type": "error"
    },
    {
      "inputs": [],
      "name": "Unauthorized",
      "type": "error"
    },
    {
      "anonymous": false,
      "inputs": [
        {
          "indexed": false,
          "internalType": "uint256",
          "name": "tokenId",
          "type": "uint256"
        },
        {
          "indexed": true,
          "internalType": "uint256",
          "name": "bidId",
          "type": "uint256"
        }
      ],
      "name": "AcceptBidEv",
      "type": "event"
    },
    {
      "anonymous": false,
      "inputs": [
        {
          "indexed": true,
          "internalType": "uint256",
          "name": "tokenId",
          "type": "uint256"
        },
        {
          "indexed": false,
          "internalType": "uint256",
          "name": "price",
          "type": "uint256"
        }
      ],
      "name": "AddListingEv",
      "type": "event"
    },
    {
      "anonymous": false,
      "inputs": [
        {
          "indexed": false,
          "internalType": "uint256",
          "name": "tokenId",
          "type": "uint256"
        },
        {
          "indexed": true,
          "internalType": "uint256",
          "name": "bidId",
          "type": "uint256"
        }
      ],
      "name": "CancelBidEv",
      "type": "event"
    },
    {
      "anonymous": false,
      "inputs": [
        {
          "indexed": true,
          "internalType": "uint256",
          "name": "tokenId",
          "type": "uint256"
        }
      ],
      "name": "CancelListingEv",
      "type": "event"
    },
    {
      "anonymous": false,
      "inputs": [
        {
          "indexed": false,
          "internalType": "uint256",
          "name": "tokenId",
          "type": "uint256"
        },
        {
          "indexed": true,
          "internalType": "uint256",
          "name": "bidId",
          "type": "uint256"
        },
        {
          "indexed": false,
          "internalType": "uint256",
          "name": "bidPrice",
          "type": "uint256"
        },
        {
          "indexed": false,
          "internalType": "address",
          "name": "owner",
          "type": "address"
        }
      ],
      "name": "CreateBidEv",
      "type": "event"
    },
    {
      "anonymous": false,
      "inputs": [
        {
          "indexed": true,
          "internalType": "uint256",
          "name": "tokenId",
          "type": "uint256"
        },
        {
          "indexed": false,
          "internalType": "uint256",
          "name": "price",
          "type": "uint256"
        }
      ],
      "name": "FulfillListingEv",
      "type": "event"
    },
    {
      "anonymous": false,
      "inputs": [
        {
          "indexed": true,
          "internalType": "address",
          "name": "newOwner",
          "type": "address"
        }
      ],
      "name": "OwnerUpdated",
      "type": "event"
    },
    {
      "anonymous": false,
      "inputs": [
        {
          "indexed": true,
          "internalType": "uint256",
          "name": "tokenId",
          "type": "uint256"
        },
        {
          "indexed": false,
          "internalType": "uint256",
          "name": "price",
          "type": "uint256"
        }
      ],
      "name": "UpdateListingEv",
      "type": "event"
    },
    {
      "stateMutability": "payable",
      "type": "fallback"
    },
    {
      "inputs": [
        {
          "internalType": "uint256",
          "name": "tokenId",
          "type": "uint256"
        },
        {
          "internalType": "uint256",
          "name": "bidId",
          "type": "uint256"
        }
      ],
      "name": "acceptBid",
      "outputs": [],
      "stateMutability": "nonpayable",
      "type": "function"
    },
    {
      "inputs": [
        {
          "internalType": "uint256",
          "name": "_tokenId",
          "type": "uint256"
        },
        {
          "internalType": "uint256",
          "name": "_price",
          "type": "uint256"
        }
      ],
      "name": "addListing",
      "outputs": [],
      "stateMutability": "nonpayable",
      "type": "function"
    },
    {
      "inputs": [
        {
          "internalType": "uint256",
          "name": "newMarketFee",
          "type": "uint256"
        }
      ],
      "name": "adjustFees",
      "outputs": [],
      "stateMutability": "nonpayable",
      "type": "function"
    },
    {
      "inputs": [],
      "name": "allowEmergencyDelisting",
      "outputs": [],
      "stateMutability": "nonpayable",
      "type": "function"
    },
    {
      "inputs": [
        {
          "internalType": "uint256",
          "name": "",
          "type": "uint256"
        },
        {
          "internalType": "uint256",
          "name": "",
          "type": "uint256"
        }
      ],
      "name": "bids",
      "outputs": [
        {
          "internalType": "uint256",
          "name": "bidId",
          "type": "uint256"
        },
        {
          "internalType": "uint256",
          "name": "tokenId",
          "type": "uint256"
        },
        {
          "internalType": "uint256",
          "name": "bidPrice",
          "type": "uint256"
        },
        {
          "internalType": "address",
          "name": "bidder",
          "type": "address"
        },
        {
          "internalType": "bool",
          "name": "active",
          "type": "bool"
        }
      ],
      "stateMutability": "view",
      "type": "function"
    },
    {
      "inputs": [
        {
          "internalType": "uint256",
          "name": "tokenId",
          "type": "uint256"
        },
        {
          "internalType": "uint256",
          "name": "bidId",
          "type": "uint256"
        }
      ],
      "name": "cancelBid",
      "outputs": [],
      "stateMutability": "nonpayable",
      "type": "function"
    },
    {
      "inputs": [
        {
          "internalType": "uint256[]",
          "name": "_burnedTokenIds",
          "type": "uint256[]"
        },
        {
          "internalType": "uint256",
          "name": "_start",
          "type": "uint256"
        },
        {
          "internalType": "uint256",
          "name": "_maxlen",
          "type": "uint256"
        }
      ],
      "name": "cancelBidsOnBurnedTokenIds",
      "outputs": [],
      "stateMutability": "nonpayable",
      "type": "function"
    },
    {
      "inputs": [
        {
          "internalType": "uint256[]",
          "name": "_burnedTokenIds",
          "type": "uint256[]"
        }
      ],
      "name": "cancelBidsOnBurnedTokenIds",
      "outputs": [],
      "stateMutability": "nonpayable",
      "type": "function"
    },
    {
      "inputs": [
        {
          "internalType": "uint256",
          "name": "_tokenId",
          "type": "uint256"
        }
      ],
      "name": "cancelListing",
      "outputs": [],
      "stateMutability": "nonpayable",
      "type": "function"
    },
    {
      "inputs": [],
      "name": "closeMarket",
      "outputs": [],
      "stateMutability": "nonpayable",
      "type": "function"
    },
    {
      "inputs": [
        {
          "internalType": "uint256",
          "name": "_tokenId",
          "type": "uint256"
        }
      ],
      "name": "emergencyDelist",
      "outputs": [],
      "stateMutability": "nonpayable",
      "type": "function"
    },
    {
      "inputs": [],
      "name": "emergencyDelisting",
      "outputs": [
        {
          "internalType": "bool",
          "name": "",
          "type": "bool"
        }
      ],
      "stateMutability": "view",
      "type": "function"
    },
    {
      "inputs": [
        {
          "internalType": "uint256",
          "name": "_tokenId",
          "type": "uint256"
        }
      ],
      "name": "fulfillListing",
      "outputs": [],
      "stateMutability": "nonpayable",
      "type": "function"
    },
    {
      "inputs": [
        {
          "internalType": "uint256[]",
          "name": "_tokenIds",
          "type": "uint256[]"
        }
      ],
      "name": "fullfillMultipleListings",
      "outputs": [],
      "stateMutability": "nonpayable",
      "type": "function"
    },
    {
      "inputs": [
        {
          "internalType": "address",
          "name": "user",
          "type": "address"
        },
        {
          "internalType": "uint256",
          "name": "start",
          "type": "uint256"
        },
        {
          "internalType": "uint256",
          "name": "len",
          "type": "uint256"
        }
      ],
      "name": "getBids",
      "outputs": [
        {
          "components": [
            {
              "internalType": "uint256",
              "name": "bidId",
              "type": "uint256"
            },
            {
              "internalType": "uint256",
              "name": "tokenId",
              "type": "uint256"
            },
            {
              "internalType": "uint256",
              "name": "bidPrice",
              "type": "uint256"
            },
            {
              "internalType": "address",
              "name": "bidder",
              "type": "address"
            },
            {
              "internalType": "bool",
              "name": "active",
              "type": "bool"
            }
          ],
          "internalType": "struct YATMarket.Bid[]",
          "name": "bidsList",
          "type": "tuple[]"
        }
      ],
      "stateMutability": "view",
      "type": "function"
    },
    {
      "inputs": [
        {
          "internalType": "uint256",
          "name": "tokenID",
          "type": "uint256"
        }
      ],
      "name": "getBidsOnBlueprint",
      "outputs": [
        {
          "components": [
            {
              "internalType": "uint256",
              "name": "bidId",
              "type": "uint256"
            },
            {
              "internalType": "uint256",
              "name": "tokenId",
              "type": "uint256"
            },
            {
              "internalType": "uint256",
              "name": "bidPrice",
              "type": "uint256"
            },
            {
              "internalType": "address",
              "name": "bidder",
              "type": "address"
            },
            {
              "internalType": "bool",
              "name": "active",
              "type": "bool"
            }
          ],
          "internalType": "struct YATMarket.Bid[]",
          "name": "bidsList",
          "type": "tuple[]"
        }
      ],
      "stateMutability": "view",
      "type": "function"
    },
    {
      "inputs": [
        {
          "internalType": "uint256",
          "name": "id",
          "type": "uint256"
        }
      ],
      "name": "getListingId",
      "outputs": [
        {
          "internalType": "uint256",
          "name": "tokenId",
          "type": "uint256"
        }
      ],
      "stateMutability": "pure",
      "type": "function"
    },
    {
      "inputs": [
        {
          "internalType": "uint256",
          "name": "from",
          "type": "uint256"
        },
        {
          "internalType": "uint256",
          "name": "length",
          "type": "uint256"
        }
      ],
      "name": "getListings",
      "outputs": [
        {
          "components": [
            {
              "internalType": "address",
              "name": "owner",
              "type": "address"
            },
            {
              "internalType": "bool",
              "name": "active",
              "type": "bool"
            },
            {
              "internalType": "uint256",
              "name": "price",
              "type": "uint256"
            }
          ],
          "internalType": "struct YATMarket.Listing[]",
          "name": "listing",
          "type": "tuple[]"
        }
      ],
      "stateMutability": "view",
      "type": "function"
    },
    {
      "inputs": [
        {
          "internalType": "address",
          "name": "user",
          "type": "address"
        }
      ],
      "name": "getTokenIdsWithBids",
      "outputs": [
        {
          "internalType": "uint256[]",
          "name": "tokenIds",
          "type": "uint256[]"
        }
      ],
      "stateMutability": "view",
      "type": "function"
    },
    {
      "inputs": [
        {
          "internalType": "uint256",
          "name": "_tokenId",
          "type": "uint256"
        }
      ],
      "name": "getTokenOwner",
      "outputs": [
        {
          "internalType": "address",
          "name": "",
          "type": "address"
        }
      ],
      "stateMutability": "view",
      "type": "function"
    },
    {
      "inputs": [
        {
          "internalType": "address",
          "name": "user",
          "type": "address"
        },
        {
          "internalType": "uint256[]",
          "name": "tokenIds",
          "type": "uint256[]"
        },
        {
          "internalType": "uint256",
          "name": "maxLen",
          "type": "uint256"
        }
      ],
      "name": "getUserBids",
      "outputs": [
        {
          "components": [
            {
              "internalType": "uint256",
              "name": "bidId",
              "type": "uint256"
            },
            {
              "internalType": "uint256",
              "name": "tokenId",
              "type": "uint256"
            },
            {
              "internalType": "uint256",
              "name": "bidPrice",
              "type": "uint256"
            },
            {
              "internalType": "address",
              "name": "bidder",
              "type": "address"
            },
            {
              "internalType": "bool",
              "name": "active",
              "type": "bool"
            }
          ],
          "internalType": "struct YATMarket.Bid[]",
          "name": "bidsList",
          "type": "tuple[]"
        }
      ],
      "stateMutability": "view",
      "type": "function"
    },
    {
      "inputs": [],
      "name": "isMarketOpen",
      "outputs": [
        {
          "internalType": "bool",
          "name": "",
          "type": "bool"
        }
      ],
      "stateMutability": "view",
      "type": "function"
    },
    {
      "inputs": [
        {
          "internalType": "uint256",
          "name": "",
          "type": "uint256"
        }
      ],
      "name": "listings",
      "outputs": [
        {
          "internalType": "address",
          "name": "owner",
          "type": "address"
        },
        {
          "internalType": "bool",
          "name": "active",
          "type": "bool"
        },
        {
          "internalType": "uint256",
          "name": "price",
          "type": "uint256"
        }
      ],
      "stateMutability": "view",
      "type": "function"
    },
    {
      "inputs": [],
      "name": "marketCut",
      "outputs": [
        {
          "internalType": "uint256",
          "name": "",
          "type": "uint256"
        }
      ],
      "stateMutability": "view",
      "type": "function"
    },
    {
      "inputs": [],
      "name": "marketFeePercent",
      "outputs": [
        {
          "internalType": "uint256",
          "name": "",
          "type": "uint256"
        }
      ],
      "stateMutability": "view",
      "type": "function"
    },
    {
      "inputs": [],
      "name": "openMarket",
      "outputs": [],
      "stateMutability": "nonpayable",
      "type": "function"
    },
    {
      "inputs": [],
      "name": "owner",
      "outputs": [
        {
          "internalType": "address",
          "name": "",
          "type": "address"
        }
      ],
      "stateMutability": "view",
      "type": "function"
    },
    {
      "inputs": [
        {
          "internalType": "uint256",
          "name": "tokenId",
          "type": "uint256"
        },
        {
          "internalType": "uint256",
          "name": "amount",
          "type": "uint256"
        }
      ],
      "name": "placeBid",
      "outputs": [],
      "stateMutability": "nonpayable",
      "type": "function"
    },
    {
      "inputs": [
        {
          "internalType": "address",
          "name": "_newNFTcontract",
          "type": "address"
        }
      ],
      "name": "setNFTContract",
      "outputs": [],
      "stateMutability": "nonpayable",
      "type": "function"
    },
    {
      "inputs": [
        {
          "internalType": "address",
          "name": "_newOwner",
          "type": "address"
        }
      ],
      "name": "setOwner",
      "outputs": [],
      "stateMutability": "nonpayable",
      "type": "function"
    },
    {
      "inputs": [
        {
          "internalType": "address",
          "name": "_WETH",
          "type": "address"
        }
      ],
      "name": "setWETH",
      "outputs": [],
      "stateMutability": "nonpayable",
      "type": "function"
    },
    {
      "inputs": [
        {
          "internalType": "uint256",
          "name": "_tokenId",
          "type": "uint256"
        },
        {
          "internalType": "uint256",
          "name": "_price",
          "type": "uint256"
        }
      ],
      "name": "updateListing",
      "outputs": [],
      "stateMutability": "nonpayable",
      "type": "function"
    },
    {
      "inputs": [
        {
          "internalType": "address",
          "name": "",
          "type": "address"
        },
        {
          "internalType": "uint256",
          "name": "",
          "type": "uint256"
        }
      ],
      "name": "userToBids",
      "outputs": [
        {
          "internalType": "uint256",
          "name": "",
          "type": "uint256"
        }
      ],
      "stateMutability": "view",
      "type": "function"
    },
    {
      "inputs": [],
      "name": "withdraw",
      "outputs": [],
      "stateMutability": "nonpayable",
      "type": "function"
    },
    {
      "inputs": [],
      "name": "withdrawableBalance",
      "outputs": [
        {
          "internalType": "uint256",
          "name": "value",
          "type": "uint256"
        }
      ],
      "stateMutability": "view",
      "type": "function"
    },
    {
      "stateMutability": "payable",
      "type": "receive"
    }
  ],
  "bytecode": {
    "object": "0x6080604052600180546001600160a01b03191671111122223333444400001111222233334444179055600060048190556005805461ffff191690556006553480156200004a57600080fd5b50604051620030ad380380620030ad8339810160408190526200006d91620000d2565b60648111806200007b575060005b156200009a5760405163c0dfb3e560e01b815260040160405180910390fd5b60088054336001600160a01b031991821617909155600080549091166001600160a01b0393909316929092179091556004556200010e565b60008060408385031215620000e657600080fd5b82516001600160a01b0381168114620000fe57600080fd5b6020939093015192949293505050565b612f8f806200011e6000396000f3fe6080604052600436106101f05760003560e01c8063836cf6e91161010c578063c511ed5e1161009a578063de74e57b1161006c578063de74e57b146105f8578063df92afbf14610667578063e2e3d93414610694578063e62d64f6146106b4578063f25e2a14146106c957005b8063c511ed5e1461058b578063cc85a55b146105a0578063d4ce85f3146105be578063d7378199146105d857005b8063a5cd761f116100de578063a5cd761f146104d9578063a7ccabdf146104f9578063aaf51b7e14610519578063aca20f071461052f578063c4b045181461055e57005b8063836cf6e9146104415780638ba0bcf9146104615780638da5cb5b1461048157806391f76419146104b957005b80633ccfd60b116101895780635b769f3c1161015b5780635b769f3c14610379578063607133a014610399578063632541b4146103ae5780637b3c4baa146103ce5780637e8359971461042157005b80633ccfd60b14610304578063467f9ac0146103195780634b3936051461033957806357c90de51461035957005b8063319ec7fd116101c2578063319ec7fd146102795780633606f5b9146102a25780633912fc85146102b75780633ba90545146102d757005b80630179ea88146101f957806302e9d5e41461021957806313af403514610239578063305a67a81461025957005b366101f757005b005b34801561020557600080fd5b506101f7610214366004612b14565b6106e9565b34801561022557600080fd5b506101f7610234366004612b14565b6107cd565b34801561024557600080fd5b506101f7610254366004612b4e565b610b95565b34801561026557600080fd5b506101f7610274366004612b72565b610c09565b34801561028557600080fd5b5061028f60065481565b6040519081526020015b60405180910390f35b3480156102ae57600080fd5b506101f7610d70565b3480156102c357600080fd5b506101f76102d2366004612b72565b610da9565b3480156102e357600080fd5b506102f76102f2366004612b72565b611121565b6040516102999190612b8b565b34801561031057600080fd5b506101f76111d0565b34801561032557600080fd5b506101f7610334366004612c50565b61127c565b34801561034557600080fd5b506101f7610354366004612b14565b611541565b34801561036557600080fd5b506101f7610374366004612b14565b611760565b34801561038557600080fd5b506101f7610394366004612b4e565b611a90565b3480156103a557600080fd5b506101f7611adc565b3480156103ba57600080fd5b506101f76103c9366004612b72565b611b17565b3480156103da57600080fd5b506103ee6103e9366004612b14565b611bf8565b604080519586526020860194909452928401919091526001600160a01b031660608301521515608082015260a001610299565b34801561042d57600080fd5b506101f761043c366004612ca1565b611c53565b34801561044d57600080fd5b506101f761045c366004612b14565b611f84565b34801561046d57600080fd5b506102f761047c366004612ce3565b612094565b34801561048d57600080fd5b506008546104a1906001600160a01b031681565b6040516001600160a01b039091168152602001610299565b3480156104c557600080fd5b506101f76104d4366004612b72565b612250565b3480156104e557600080fd5b506104a16104f4366004612b72565b6122aa565b34801561050557600080fd5b506101f7610514366004612b4e565b612357565b34801561052557600080fd5b5061028f60045481565b34801561053b57600080fd5b5060055461054e90610100900460ff1681565b6040519015158152602001610299565b34801561056a57600080fd5b5061057e610579366004612b14565b6123a3565b6040516102999190612d3f565b34801561059757600080fd5b506101f7612491565b3480156105ac57600080fd5b5061028f6105bb366004612b72565b90565b3480156105ca57600080fd5b5060055461054e9060ff1681565b3480156105e457600080fd5b5061028f6105f3366004612d96565b6124c7565b34801561060457600080fd5b50610642610613366004612b72565b600760205260009081526040902080546001909101546001600160a01b03821691600160a01b900460ff169083565b604080516001600160a01b039094168452911515602084015290820152606001610299565b34801561067357600080fd5b50610687610682366004612b4e565b6124f8565b6040516102999190612dc2565b3480156106a057600080fd5b506102f76106af366004612e06565b612564565b3480156106c057600080fd5b5060065461028f565b3480156106d557600080fd5b506101f76106e4366004612ca1565b612829565b60055460ff1661070c57604051636b411a7f60e11b815260040160405180910390fd5b600082815260076020526040902054600160a01b900460ff166107425760405163aa41c14760e01b815260040160405180910390fd5b6000828152600760205260409020546001600160a01b03163314610779576040516349e27cff60e01b815260040160405180910390fd5b600082815260076020526040908190206001018290555182907fc722c86d457c19a3b0a9a34f38bfefc93a93ebe5ef3d2e0e5eba1b1de4636dbf906107c19084815260200190565b60405180910390a25050565b60055460ff166107f057604051636b411a7f60e11b815260040160405180910390fd5b60006107fb836122aa565b9050336001600160a01b03821614610826576040516349e27cff60e01b815260040160405180910390fd5b600083815260026020526040902080548390811061084657610846612e3b565b6000918252602082206003600490920201015460ff600160a01b90910416151590036108855760405163aa41c14760e01b815260040160405180910390fd5b60008381526002602052604081208054849081106108a5576108a5612e3b565b906000526020600020906004020160020154905060006002600086815260200190815260200160002084815481106108df576108df612e3b565b906000526020600020906004020160030160009054906101000a90046001600160a01b0316905060026000868152602001908152602001600020848154811061092a5761092a612e3b565b600091825260208083206004909202909101828155600181018390556002810183905560030180546001600160a81b0319169055868252600790526040902054600160a01b900460ff1615610a305760008581526007602052604080822080546001600160a81b0319168155600101829055905490516323b872dd60e01b81526001600160a01b03909116906323b872dd906109ce90309085908a90600401612e51565b600060405180830381600087803b1580156109e857600080fd5b505af11580156109fc573d6000803e3d6000fd5b50506040518792507f7de7556a16e38538b177be3ce0ca95ecb5b05b8b9d2a99524814f5a96c611f449150600090a2610a97565b6000546040516323b872dd60e01b81526001600160a01b03909116906323b872dd90610a6490869085908a90600401612e51565b600060405180830381600087803b158015610a7e57600080fd5b505af1158015610a92573d6000803e3d6000fd5b505050505b6000606460045484610aa99190612e8b565b610ab39190612eaa565b90506000610ac18285612ecc565b90508160066000828254610ad59190612ee3565b909155505060015460405163a9059cbb60e01b81526001600160a01b038781166004830152602482018490529091169063a9059cbb906044016020604051808303816000875af1158015610b2d573d6000803e3d6000fd5b505050506040513d601f19601f82011682018060405250810190610b519190612efb565b50857faf509594c5f6022a7ca7c5b735fd0f82e6589b1cf47a3f2732a5effb94362c8688604051610b8491815260200190565b60405180910390a250505050505050565b6008546001600160a01b03163314610bbf576040516282b42960e81b815260040160405180910390fd5b600880546001600160a01b0319166001600160a01b0383169081179091556040517f4ffd725fc4a22075e9ec71c59edf9c38cdeb588a91b24fc5b61388c5be41282b90600090a250565b60055460ff16610c2c57604051636b411a7f60e11b815260040160405180910390fd5b600081815260076020908152604091829020825160608101845281546001600160a01b0381168252600160a01b900460ff16151592810183905260019091015492810192909252610c905760405163aa41c14760e01b815260040160405180910390fd5b80516001600160a01b03163314610cba576040516349e27cff60e01b815260040160405180910390fd5b60008281526007602052604080822080546001600160a81b03191681556001018290559054825191516323b872dd60e01b81526001600160a01b03909116916323b872dd91610d0f9130918790600401612e51565b600060405180830381600087803b158015610d2957600080fd5b505af1158015610d3d573d6000803e3d6000fd5b50506040518492507f7de7556a16e38538b177be3ce0ca95ecb5b05b8b9d2a99524814f5a96c611f449150600090a25050565b6008546001600160a01b03163314610d9a576040516282b42960e81b815260040160405180910390fd5b6005805460ff19166001179055565b60055460ff16610dcc57604051636b411a7f60e11b815260040160405180910390fd5b600081815260076020908152604091829020825160608101845281546001600160a01b0381168252600160a01b900460ff16151592810183905260019091015492810192909252610e305760405163aa41c14760e01b815260040160405180910390fd5b80516001600160a01b03163303610e5a576040516349e27cff60e01b815260040160405180910390fd5b60408181015160015491516370a0823160e01b815233600482015290916001600160a01b0316906370a0823190602401602060405180830381865afa158015610ea7573d6000803e3d6000fd5b505050506040513d601f19601f82011682018060405250810190610ecb9190612f1d565b1015610eea5760405163044044a560e21b815260040160405180910390fd5b60008281526007602052604080822080546001600160a81b03191681556001019190915560045490820151606491610f2191612e8b565b610f2b9190612eaa565b60066000828254610f3c9190612ee3565b9091555050600154815160045460408401516001600160a01b03909316926323b872dd9233929091606491610f7091612e8b565b610f7a9190612eaa565b8560400151610f899190612ecc565b6040518463ffffffff1660e01b8152600401610fa793929190612e51565b6020604051808303816000875af1158015610fc6573d6000803e3d6000fd5b505050506040513d601f19601f82011682018060405250810190610fea9190612efb565b5060015460045460408301516001600160a01b03909216916323b872dd91339130916064916110199190612e8b565b6110239190612eaa565b6040518463ffffffff1660e01b815260040161104193929190612e51565b6020604051808303816000875af1158015611060573d6000803e3d6000fd5b505050506040513d601f19601f820116820180604052508101906110849190612efb565b506000546040516323b872dd60e01b81526001600160a01b03909116906323b872dd906110b990309033908790600401612e51565b600060405180830381600087803b1580156110d357600080fd5b505af11580156110e7573d6000803e3d6000fd5b50505050817f118430d9f151031f078659241fee1f24ab174df05b0a79d498c842619dba52a882604001516040516107c191815260200190565b606060026000838152602001908152602001600020805480602002602001604051908101604052809291908181526020016000905b828210156111c55760008481526020908190206040805160a081018252600486029092018054835260018082015484860152600282015492840192909252600301546001600160a01b0381166060840152600160a01b900460ff16151560808301529083529092019101611156565b505050509050919050565b6008546001600160a01b031633146111fa576040516282b42960e81b815260040160405180910390fd5b60068054600090915560015460405163a9059cbb60e01b8152336004820152602481018390526001600160a01b039091169063a9059cbb906044016020604051808303816000875af1158015611254573d6000803e3d6000fd5b505050506040513d601f19601f820116820180604052508101906112789190612efb565b5050565b60005b8381101561153a57600085858381811061129b5761129b612e3b565b600080546040516331a9108f60e11b81526020939093029490940135600483018190529450926001600160a01b03169150636352211e90602401602060405180830381865afa1580156112f2573d6000803e3d6000fd5b505050506040513d601f19601f820116820180604052508101906113169190612f36565b6001600160a01b03160361152757600081815260026020908152604080832080548251818502810185019093528083529192909190849084015b828210156113bf5760008481526020908190206040805160a081018252600486029092018054835260018082015484860152600282015492840192909252600301546001600160a01b0381166060840152600160a01b900460ff16151560808301529083529092019101611350565b505082519293505050808510156113d35750835b855b818110156115235760008382815181106113f1576113f1612e3b565b6020026020010151905080608001511561151257600085815260026020526040902080548390811061142557611425612e3b565b6000918252602082206004918202018281556001808201849055600282019390935560030180546001600160a81b031916905590546060830151604080850151905163a9059cbb60e01b81526001600160a01b03928316948101949094526024840152169063a9059cbb906044016020604051808303816000875af11580156114b2573d6000803e3d6000fd5b505050506040513d601f19601f820116820180604052508101906114d69190612efb565b50817f2ee90356e12940d390e454afd98bcf0eb6976e85bfcfbb6750da071e08e55f458660405161150991815260200190565b60405180910390a25b5061151c81612f53565b90506113d5565b5050505b508061153281612f53565b91505061127f565b5050505050565b60055460ff1661156457604051636b411a7f60e11b815260040160405180910390fd5b600082815260026020526040902080543391908390811061158757611587612e3b565b60009182526020909120600360049092020101546001600160a01b0316146115c2576040516349e27cff60e01b815260040160405180910390fd5b60008281526002602052604090208054829081106115e2576115e2612e3b565b6000918252602082206003600490920201015460ff600160a01b90910416151590036116215760405163aa41c14760e01b815260040160405180910390fd5b600082815260026020526040812080548390811061164157611641612e3b565b906000526020600020906004020160020154905060026000848152602001908152602001600020828154811061167957611679612e3b565b6000918252602082206004918202018281556001808201849055600282019390935560030180546001600160a81b0319169055905460405163a9059cbb60e01b81523392810192909252602482018390526001600160a01b03169063a9059cbb906044016020604051808303816000875af11580156116fc573d6000803e3d6000fd5b505050506040513d601f19601f820116820180604052508101906117209190612efb565b50817f2ee90356e12940d390e454afd98bcf0eb6976e85bfcfbb6750da071e08e55f458460405161175391815260200190565b60405180910390a2505050565b60055460ff1661178357604051636b411a7f60e11b815260040160405180910390fd5b600061178e836122aa565b90506001600160a01b03811633036117f75760405162461bcd60e51b815260206004820152602160248201527f43616e277420706c6163652062696420666f72206f776e20626c75657072696e6044820152601d60fa1b60648201526084015b60405180910390fd5b6001546040516370a0823160e01b815233600482015283916001600160a01b0316906370a0823190602401602060405180830381865afa15801561183f573d6000803e3d6000fd5b505050506040513d601f19601f820116820180604052508101906118639190612f1d565b10156118825760405163044044a560e21b815260040160405180910390fd5b6001546040516323b872dd60e01b81526001600160a01b03909116906323b872dd906118b690339030908790600401612e51565b6020604051808303816000875af11580156118d5573d6000803e3d6000fd5b505050506040513d601f19601f820116820180604052508101906118f99190612efb565b5060008381526002602081815260408084208054825160a0810184528181528085018a81528185018a815233606084018181526001608086018181528188018955888d528a8d209651600489029097019687559451868201559251858b0155516003948501805494511515600160a01b026001600160a81b03199095166001600160a01b03929092169190911793909317909255908852908552928620805493840181558652838620909201889055938790529190528154909190829081106119c4576119c4612e3b565b9060005260206000209060040201600101547fce7a05f3f1ffba73b2492a7825901d2d0aea080ee81e3b3c340950d57770d666600260008781526020019081526020016000208381548110611a1b57611a1b612e3b565b906000526020600020906004020160000154600260008881526020019081526020016000208481548110611a5157611a51612e3b565b60009182526020918290206002600490920201015460408051938452918301526001600160a01b0386169082015260600160405180910390a250505050565b6008546001600160a01b03163314611aba576040516282b42960e81b815260040160405180910390fd5b600180546001600160a01b0319166001600160a01b0392909216919091179055565b6008546001600160a01b03163314611b06576040516282b42960e81b815260040160405180910390fd5b6005805461ff001916610100179055565b600554610100900460ff168015611b31575060055460ff16155b611b725760405162461bcd60e51b815260206004820152601260248201527127b7363c9034b71032b6b2b933b2b731bc9760711b60448201526064016117ee565b6000818152600760208181526040808420815160608101835281546001600160a01b03808216835260ff600160a01b83041615158387015260018401805484870152898952969095526001600160a81b031916909155928490559254825193516323b872dd60e01b815292939116916323b872dd91610d0f913091908790600401612e51565b60026020528160005260406000208181548110611c1457600080fd5b6000918252602090912060049091020180546001820154600283015460039093015491945092506001600160a01b03811690600160a01b900460ff1685565b60055460ff16611c7657604051636b411a7f60e11b815260040160405180910390fd5b60005b81811015611f7f576000838383818110611c9557611c95612e3b565b60209081029290920135600081815260078452604090819020815160608101835281546001600160a01b038116808352600160a01b90910460ff16151596820196909652600190910154918101919091529093509133039050611d0b576040516349e27cff60e01b815260040160405180910390fd5b8060200151611d2d5760405163aa41c14760e01b815260040160405180910390fd5b60008281526007602052604080822080546001600160a81b03191681556001019190915560045490820151606491611d6491612e8b565b611d6e9190612eaa565b60066000828254611d7f9190612ee3565b9091555050600154815160045460408401516001600160a01b03909316926323b872dd9233929091606491611db391612e8b565b611dbd9190612eaa565b8560400151611dcc9190612ecc565b6040518463ffffffff1660e01b8152600401611dea93929190612e51565b6020604051808303816000875af1158015611e09573d6000803e3d6000fd5b505050506040513d601f19601f82011682018060405250810190611e2d9190612efb565b5060015460045460408301516001600160a01b03909216916323b872dd9133913091606491611e5c9190612e8b565b611e669190612eaa565b6040518463ffffffff1660e01b8152600401611e8493929190612e51565b6020604051808303816000875af1158015611ea3573d6000803e3d6000fd5b505050506040513d601f19601f82011682018060405250810190611ec79190612efb565b506000546040516323b872dd60e01b81526001600160a01b03909116906323b872dd90611efc90309033908790600401612e51565b600060405180830381600087803b158015611f1657600080fd5b505af1158015611f2a573d6000803e3d6000fd5b50505050817f118430d9f151031f078659241fee1f24ab174df05b0a79d498c842619dba52a88260400151604051611f6491815260200190565b60405180910390a2505080611f7890612f53565b9050611c79565b505050565b60055460ff16611fa757604051636b411a7f60e11b815260040160405180910390fd5b604080516060810182523380825260016020808401828152848601878152600089815260079093528683209551865492511515600160a01b026001600160a81b03199093166001600160a01b0391821617929092178655519490920193909355915492516323b872dd60e01b815292909116916323b872dd916120309130908790600401612e51565b600060405180830381600087803b15801561204a57600080fd5b505af115801561205e573d6000803e3d6000fd5b50505050817f6e5f7e638173bd2538c34c8893d3046f00726f1d62961c9407f64808e7f77f9b826040516107c191815260200190565b60608167ffffffffffffffff8111156120af576120af612f6c565b6040519080825280602002602001820160405280156120e857816020015b6120d5612ada565b8152602001906001900390816120cd5790505b5090506000805b8481101561224657600086868381811061210b5761210b612e3b565b90506020020135905060005b60008281526002602052604090205481101561223157600082815260026020526040902080546001600160a01b038b1691908390811061215957612159612e3b565b60009182526020909120600360049092020101546001600160a01b03160361222157600082815260026020526040902080548290811061219b5761219b612e3b565b60009182526020918290206040805160a0810182526004909302909101805483526001810154938301939093526002830154908201526003909101546001600160a01b038116606083015260ff600160a01b9091041615156080820152858561220381612f53565b96508151811061221557612215612e3b565b60200260200101819052505b61222a81612f53565b9050612117565b5050808061223e90612f53565b9150506120ef565b5050949350505050565b6008546001600160a01b0316331461227a576040516282b42960e81b815260040160405180910390fd5b6064811180612287575060005b156122a55760405163c0dfb3e560e01b815260040160405180910390fd5b600455565b600081815260076020526040812054600160a01b900460ff16156122e457506000908152600760205260409020546001600160a01b031690565b6000546040516331a9108f60e11b8152600481018490526001600160a01b0390911690636352211e90602401602060405180830381865afa15801561232d573d6000803e3d6000fd5b505050506040513d601f19601f820116820180604052508101906123519190612f36565b92915050565b6008546001600160a01b03163314612381576040516282b42960e81b815260040160405180910390fd5b600080546001600160a01b0319166001600160a01b0392909216919091179055565b606060008267ffffffffffffffff8111156123c0576123c0612f6c565b60405190808252806020026020018201604052801561240b57816020015b60408051606081018252600080825260208083018290529282015282526000199092019101816123de5790505b50905060005b8381101561248957808501600090815260076020908152604091829020825160608101845281546001600160a01b0381168252600160a01b900460ff161515928101929092526001015491810191909152825183908390811061247657612476612e3b565b6020908102919091010152600101612411565b509392505050565b6008546001600160a01b031633146124bb576040516282b42960e81b815260040160405180910390fd5b6005805460ff19169055565b600360205281600052604060002081815481106124e357600080fd5b90600052602060002001600091509150505481565b6001600160a01b03811660009081526003602090815260409182902080548351818402810184019094528084526060939283018282801561255857602002820191906000526020600020905b815481526020019060010190808311612544575b50505050509050919050565b6001600160a01b03831660009081526003602090815260408083208054825181850281018501909352808352606094938301828280156125c357602002820191906000526020600020905b8154815260200190600101908083116125af575b50508351939450505050808410156125d85750825b60008167ffffffffffffffff8111156125f3576125f3612f6c565b60405190808252806020026020018201604052801561262c57816020015b612619612ada565b8152602001906001900390816126115790505b509050855b8281101561281e5760005b6002600086848151811061265257612652612e3b565b602002602001015181526020019081526020016000208054905081101561280d57886001600160a01b03166002600087858151811061269357612693612e3b565b6020026020010151815260200190815260200160002082815481106126ba576126ba612e3b565b60009182526020909120600360049092020101546001600160a01b031614801561273c5750600260008684815181106126f5576126f5612e3b565b60200260200101518152602001908152602001600020818154811061271c5761271c612e3b565b906000526020600020906004020160030160149054906101000a900460ff165b156127fb576002600086848151811061275757612757612e3b565b60200260200101518152602001908152602001600020818154811061277e5761277e612e3b565b60009182526020918290206040805160a0810182526004909302909101805483526001810154938301939093526002830154908201526003909101546001600160a01b038116606083015260ff600160a01b909104161515608082015283518490849081106127ef576127ef612e3b565b60200260200101819052505b8061280581612f53565b91505061263c565b5061281781612f53565b9050612631565b509695505050505050565b60005b81811015611f7f57600083838381811061284857612848612e3b565b600080546040516331a9108f60e11b81526020939093029490940135600483018190529450926001600160a01b03169150636352211e90602401602060405180830381865afa15801561289f573d6000803e3d6000fd5b505050506040513d601f19601f820116820180604052508101906128c39190612f36565b6001600160a01b031603612ac757600081815260026020908152604080832080548251818502810185019093528083529192909190849084015b8282101561296c5760008481526020908190206040805160a081018252600486029092018054835260018082015484860152600282015492840192909252600301546001600160a01b0381166060840152600160a01b900460ff161515608083015290835290920191016128fd565b50505050905060005b8151811015612ac457600082828151811061299257612992612e3b565b60200260200101519050806080015115612ab35760008481526002602052604090208054839081106129c6576129c6612e3b565b6000918252602082206004918202018281556001808201849055600282019390935560030180546001600160a81b031916905590546060830151604080850151905163a9059cbb60e01b81526001600160a01b03928316948101949094526024840152169063a9059cbb906044016020604051808303816000875af1158015612a53573d6000803e3d6000fd5b505050506040513d601f19601f82011682018060405250810190612a779190612efb565b50817f2ee90356e12940d390e454afd98bcf0eb6976e85bfcfbb6750da071e08e55f4585604051612aaa91815260200190565b60405180910390a25b50612abd81612f53565b9050612975565b50505b5080612ad281612f53565b91505061282c565b6040518060a0016040528060008152602001600081526020016000815260200160006001600160a01b031681526020016000151581525090565b60008060408385031215612b2757600080fd5b50508035926020909101359150565b6001600160a01b0381168114612b4b57600080fd5b50565b600060208284031215612b6057600080fd5b8135612b6b81612b36565b9392505050565b600060208284031215612b8457600080fd5b5035919050565b602080825282518282018190526000919060409081850190868401855b82811015612bf757815180518552868101518786015285810151868601526060808201516001600160a01b03169086015260809081015115159085015260a09093019290850190600101612ba8565b5091979650505050505050565b60008083601f840112612c1657600080fd5b50813567ffffffffffffffff811115612c2e57600080fd5b6020830191508360208260051b8501011115612c4957600080fd5b9250929050565b60008060008060608587031215612c6657600080fd5b843567ffffffffffffffff811115612c7d57600080fd5b612c8987828801612c04565b90989097506020870135966040013595509350505050565b60008060208385031215612cb457600080fd5b823567ffffffffffffffff811115612ccb57600080fd5b612cd785828601612c04565b90969095509350505050565b60008060008060608587031215612cf957600080fd5b8435612d0481612b36565b9350602085013567ffffffffffffffff811115612d2057600080fd5b612d2c87828801612c04565b9598909750949560400135949350505050565b602080825282518282018190526000919060409081850190868401855b82811015612bf757815180516001600160a01b03168552868101511515878601528501518585015260609093019290850190600101612d5c565b60008060408385031215612da957600080fd5b8235612db481612b36565b946020939093013593505050565b6020808252825182820181905260009190848201906040850190845b81811015612dfa57835183529284019291840191600101612dde565b50909695505050505050565b600080600060608486031215612e1b57600080fd5b8335612e2681612b36565b95602085013595506040909401359392505050565b634e487b7160e01b600052603260045260246000fd5b6001600160a01b039384168152919092166020820152604081019190915260600190565b634e487b7160e01b600052601160045260246000fd5b6000816000190483118215151615612ea557612ea5612e75565b500290565b600082612ec757634e487b7160e01b600052601260045260246000fd5b500490565b600082821015612ede57612ede612e75565b500390565b60008219821115612ef657612ef6612e75565b500190565b600060208284031215612f0d57600080fd5b81518015158114612b6b57600080fd5b600060208284031215612f2f57600080fd5b5051919050565b600060208284031215612f4857600080fd5b8151612b6b81612b36565b600060018201612f6557612f65612e75565b5060010190565b634e487b7160e01b600052604160045260246000fdfea164736f6c634300080d000a",
    "linkReferences": {}
  }
}