{
  "abi": [
    {
      "inputs": [
        {
          "internalType": "address",
          "name": "nft_address",
          "type": "address"
        },
        {
          "internalType": "address",
          "name": "wETH_",
          "type": "address"
        },
        {
          "internalType": "uint256",
          "name": "market_fee",
          "type": "uint256"
        }
      ],
      "stateMutability": "nonpayable",
      "type": "constructor"
    },
    {
      "inputs": [],
      "name": "BidAlreadyExist",
      "type": "error"
    },
    {
      "inputs": [],
      "name": "BidDoesntExist",
      "type": "error"
    },
    {
      "inputs": [],
      "name": "ClosedMarket",
      "type": "error"
    },
    {
      "inputs": [],
      "name": "InactiveListing",
      "type": "error"
    },
    {
      "inputs": [],
      "name": "InsufficientValue",
      "type": "error"
    },
    {
      "inputs": [],
      "name": "InvalidOwner",
      "type": "error"
    },
    {
      "inputs": [],
      "name": "OnlyEmergency",
      "type": "error"
    },
    {
      "inputs": [],
      "name": "Percentage0to100",
      "type": "error"
    },
    {
      "inputs": [],
      "name": "Unauthorized",
      "type": "error"
    },
    {
      "anonymous": false,
      "inputs": [
        {
          "indexed": false,
          "internalType": "uint256",
          "name": "tokenId",
          "type": "uint256"
        },
        {
          "indexed": false,
          "internalType": "address",
          "name": "buyer",
          "type": "address"
        }
      ],
      "name": "AcceptBidEv",
      "type": "event"
    },
    {
      "anonymous": false,
      "inputs": [
        {
          "indexed": true,
          "internalType": "uint256",
          "name": "tokenId",
          "type": "uint256"
        },
        {
          "indexed": false,
          "internalType": "uint256",
          "name": "price",
          "type": "uint256"
        }
      ],
      "name": "AddListingEv",
      "type": "event"
    },
    {
      "anonymous": false,
      "inputs": [
        {
          "indexed": false,
          "internalType": "uint256",
          "name": "tokenId",
          "type": "uint256"
        }
      ],
      "name": "CancelBidEv",
      "type": "event"
    },
    {
      "anonymous": false,
      "inputs": [
        {
          "indexed": true,
          "internalType": "uint256",
          "name": "tokenId",
          "type": "uint256"
        }
      ],
      "name": "CancelListingEv",
      "type": "event"
    },
    {
      "anonymous": false,
      "inputs": [
        {
          "indexed": false,
          "internalType": "uint256",
          "name": "tokenId",
          "type": "uint256"
        },
        {
          "indexed": false,
          "internalType": "uint256",
          "name": "bidPrice",
          "type": "uint256"
        },
        {
          "indexed": false,
          "internalType": "address",
          "name": "owner",
          "type": "address"
        }
      ],
      "name": "CreateBidEv",
      "type": "event"
    },
    {
      "anonymous": false,
      "inputs": [
        {
          "indexed": true,
          "internalType": "uint256",
          "name": "tokenId",
          "type": "uint256"
        },
        {
          "indexed": false,
          "internalType": "uint256",
          "name": "price",
          "type": "uint256"
        }
      ],
      "name": "FulfillListingEv",
      "type": "event"
    },
    {
      "anonymous": false,
      "inputs": [
        {
          "indexed": true,
          "internalType": "address",
          "name": "newOwner",
          "type": "address"
        }
      ],
      "name": "OwnerUpdated",
      "type": "event"
    },
    {
      "anonymous": false,
      "inputs": [
        {
          "indexed": true,
          "internalType": "uint256",
          "name": "tokenId",
          "type": "uint256"
        },
        {
          "indexed": false,
          "internalType": "uint256",
          "name": "price",
          "type": "uint256"
        }
      ],
      "name": "UpdateListingEv",
      "type": "event"
    },
    {
      "stateMutability": "payable",
      "type": "fallback"
    },
    {
      "inputs": [
        {
          "internalType": "uint256",
          "name": "tokenId",
          "type": "uint256"
        },
        {
          "internalType": "address",
          "name": "buyer",
          "type": "address"
        }
      ],
      "name": "acceptBid",
      "outputs": [],
      "stateMutability": "nonpayable",
      "type": "function"
    },
    {
      "inputs": [
        {
          "internalType": "uint256",
          "name": "_tokenId",
          "type": "uint256"
        },
        {
          "internalType": "uint256",
          "name": "_price",
          "type": "uint256"
        }
      ],
      "name": "addListing",
      "outputs": [],
      "stateMutability": "nonpayable",
      "type": "function"
    },
    {
      "inputs": [
        {
          "internalType": "uint256",
          "name": "newMarketFee",
          "type": "uint256"
        }
      ],
      "name": "adjustFees",
      "outputs": [],
      "stateMutability": "nonpayable",
      "type": "function"
    },
    {
      "inputs": [],
      "name": "allowEmergencyDelisting",
      "outputs": [],
      "stateMutability": "nonpayable",
      "type": "function"
    },
    {
      "inputs": [
        {
          "internalType": "uint256",
          "name": "",
          "type": "uint256"
        },
        {
          "internalType": "address",
          "name": "",
          "type": "address"
        }
      ],
      "name": "bids",
      "outputs": [
        {
          "internalType": "uint256",
          "name": "bidPrice",
          "type": "uint256"
        },
        {
          "internalType": "address",
          "name": "bidder",
          "type": "address"
        },
        {
          "internalType": "bool",
          "name": "active",
          "type": "bool"
        }
      ],
      "stateMutability": "view",
      "type": "function"
    },
    {
      "inputs": [
        {
          "internalType": "uint256",
          "name": "tokenId",
          "type": "uint256"
        }
      ],
      "name": "cancelBid",
      "outputs": [],
      "stateMutability": "nonpayable",
      "type": "function"
    },
    {
      "inputs": [
        {
          "internalType": "address[]",
          "name": "bidders",
          "type": "address[]"
        },
        {
          "internalType": "uint256",
          "name": "tokenId",
          "type": "uint256"
        }
      ],
      "name": "cancelBidsOnBurnedTokenIds",
      "outputs": [],
      "stateMutability": "nonpayable",
      "type": "function"
    },
    {
      "inputs": [
        {
          "internalType": "uint256",
          "name": "_tokenId",
          "type": "uint256"
        }
      ],
      "name": "cancelListing",
      "outputs": [],
      "stateMutability": "nonpayable",
      "type": "function"
    },
    {
      "inputs": [],
      "name": "closeMarket",
      "outputs": [],
      "stateMutability": "nonpayable",
      "type": "function"
    },
    {
      "inputs": [
        {
          "internalType": "uint256",
          "name": "_tokenId",
          "type": "uint256"
        }
      ],
      "name": "emergencyDelist",
      "outputs": [],
      "stateMutability": "nonpayable",
      "type": "function"
    },
    {
      "inputs": [],
      "name": "emergencyDelisting",
      "outputs": [
        {
          "internalType": "bool",
          "name": "",
          "type": "bool"
        }
      ],
      "stateMutability": "view",
      "type": "function"
    },
    {
      "inputs": [
        {
          "internalType": "uint256",
          "name": "_tokenId",
          "type": "uint256"
        }
      ],
      "name": "fulfillListing",
      "outputs": [],
      "stateMutability": "nonpayable",
      "type": "function"
    },
    {
      "inputs": [
        {
          "internalType": "uint256[]",
          "name": "_tokenIds",
          "type": "uint256[]"
        }
      ],
      "name": "fullfillMultipleListings",
      "outputs": [],
      "stateMutability": "nonpayable",
      "type": "function"
    },
    {
      "inputs": [
        {
          "internalType": "uint256",
          "name": "id",
          "type": "uint256"
        }
      ],
      "name": "getListingId",
      "outputs": [
        {
          "internalType": "uint256",
          "name": "tokenId",
          "type": "uint256"
        }
      ],
      "stateMutability": "pure",
      "type": "function"
    },
    {
      "inputs": [
        {
          "internalType": "uint256",
          "name": "from",
          "type": "uint256"
        },
        {
          "internalType": "uint256",
          "name": "length",
          "type": "uint256"
        }
      ],
      "name": "getListings",
      "outputs": [
        {
          "components": [
            {
              "internalType": "address",
              "name": "owner",
              "type": "address"
            },
            {
              "internalType": "bool",
              "name": "active",
              "type": "bool"
            },
            {
              "internalType": "uint256",
              "name": "price",
              "type": "uint256"
            }
          ],
          "internalType": "struct YATMarket.Listing[]",
          "name": "listing",
          "type": "tuple[]"
        }
      ],
      "stateMutability": "view",
      "type": "function"
    },
    {
      "inputs": [
        {
          "internalType": "address",
          "name": "user",
          "type": "address"
        }
      ],
      "name": "getTokenIdsWithBids",
      "outputs": [
        {
          "internalType": "uint256[]",
          "name": "tokenIds",
          "type": "uint256[]"
        }
      ],
      "stateMutability": "view",
      "type": "function"
    },
    {
      "inputs": [
        {
          "internalType": "uint256",
          "name": "_tokenId",
          "type": "uint256"
        }
      ],
      "name": "getTokenOwner",
      "outputs": [
        {
          "internalType": "address",
          "name": "",
          "type": "address"
        }
      ],
      "stateMutability": "view",
      "type": "function"
    },
    {
      "inputs": [
        {
          "internalType": "address",
          "name": "user",
          "type": "address"
        },
        {
          "internalType": "uint256[]",
          "name": "tokenIds",
          "type": "uint256[]"
        }
      ],
      "name": "getUserBids",
      "outputs": [
        {
          "components": [
            {
              "internalType": "uint256",
              "name": "bidPrice",
              "type": "uint256"
            },
            {
              "internalType": "address",
              "name": "bidder",
              "type": "address"
            },
            {
              "internalType": "bool",
              "name": "active",
              "type": "bool"
            }
          ],
          "internalType": "struct YATMarket.Bid[]",
          "name": "bidsList",
          "type": "tuple[]"
        }
      ],
      "stateMutability": "view",
      "type": "function"
    },
    {
      "inputs": [],
      "name": "isMarketOpen",
      "outputs": [
        {
          "internalType": "bool",
          "name": "",
          "type": "bool"
        }
      ],
      "stateMutability": "view",
      "type": "function"
    },
    {
      "inputs": [
        {
          "internalType": "uint256",
          "name": "",
          "type": "uint256"
        }
      ],
      "name": "listings",
      "outputs": [
        {
          "internalType": "address",
          "name": "owner",
          "type": "address"
        },
        {
          "internalType": "bool",
          "name": "active",
          "type": "bool"
        },
        {
          "internalType": "uint256",
          "name": "price",
          "type": "uint256"
        }
      ],
      "stateMutability": "view",
      "type": "function"
    },
    {
      "inputs": [],
      "name": "marketCut",
      "outputs": [
        {
          "internalType": "uint256",
          "name": "",
          "type": "uint256"
        }
      ],
      "stateMutability": "view",
      "type": "function"
    },
    {
      "inputs": [],
      "name": "marketFeePercent",
      "outputs": [
        {
          "internalType": "uint256",
          "name": "",
          "type": "uint256"
        }
      ],
      "stateMutability": "view",
      "type": "function"
    },
    {
      "inputs": [],
      "name": "openMarket",
      "outputs": [],
      "stateMutability": "nonpayable",
      "type": "function"
    },
    {
      "inputs": [],
      "name": "owner",
      "outputs": [
        {
          "internalType": "address",
          "name": "",
          "type": "address"
        }
      ],
      "stateMutability": "view",
      "type": "function"
    },
    {
      "inputs": [
        {
          "internalType": "uint256",
          "name": "tokenId",
          "type": "uint256"
        },
        {
          "internalType": "uint256",
          "name": "amount",
          "type": "uint256"
        }
      ],
      "name": "placeBid",
      "outputs": [],
      "stateMutability": "nonpayable",
      "type": "function"
    },
    {
      "inputs": [
        {
          "internalType": "address",
          "name": "_newNFTcontract",
          "type": "address"
        }
      ],
      "name": "setNFTContract",
      "outputs": [],
      "stateMutability": "nonpayable",
      "type": "function"
    },
    {
      "inputs": [
        {
          "internalType": "address",
          "name": "_newOwner",
          "type": "address"
        }
      ],
      "name": "setOwner",
      "outputs": [],
      "stateMutability": "nonpayable",
      "type": "function"
    },
    {
      "inputs": [
        {
          "internalType": "uint256",
          "name": "_tokenId",
          "type": "uint256"
        },
        {
          "internalType": "uint256",
          "name": "_price",
          "type": "uint256"
        }
      ],
      "name": "updateListing",
      "outputs": [],
      "stateMutability": "nonpayable",
      "type": "function"
    },
    {
      "inputs": [
        {
          "internalType": "address",
          "name": "",
          "type": "address"
        },
        {
          "internalType": "uint256",
          "name": "",
          "type": "uint256"
        }
      ],
      "name": "userToBids",
      "outputs": [
        {
          "internalType": "uint256",
          "name": "",
          "type": "uint256"
        }
      ],
      "stateMutability": "view",
      "type": "function"
    },
    {
      "inputs": [],
      "name": "withdraw",
      "outputs": [],
      "stateMutability": "nonpayable",
      "type": "function"
    },
    {
      "inputs": [],
      "name": "withdrawableBalance",
      "outputs": [
        {
          "internalType": "uint256",
          "name": "value",
          "type": "uint256"
        }
      ],
      "stateMutability": "view",
      "type": "function"
    },
    {
      "stateMutability": "payable",
      "type": "receive"
    }
  ],
  "bytecode": {
    "object": "0x60a0604052600060038190556004805461ffff191690556005553480156200002657600080fd5b50604051620027ca380380620027ca8339810160408190526200004991620000ca565b606481118062000057575060005b15620000765760405163c0dfb3e560e01b815260040160405180910390fd5b60078054336001600160a01b031991821617909155600080549091166001600160a01b03948516179055600355166080526200010b565b80516001600160a01b0381168114620000c557600080fd5b919050565b600080600060608486031215620000e057600080fd5b620000eb84620000ad565b9250620000fb60208501620000ad565b9150604084015190509250925092565b60805161265d6200016d600039600081816109c901528181610c9a0152818161100f0152818161110c015281816111be01528181611358015281816114c40152818161156d0152818161192b015281816119dd0152611d68015261265d6000f3fe6080604052600436106101c45760003560e01c80638da5cb5b116100f6578063c4b045181161008f578063d737819911610061578063d737819914610592578063de74e57b146105b2578063df92afbf14610621578063e62d64f61461064e57005b8063c4b0451814610518578063c511ed5e14610545578063cc85a55b1461055a578063d4ce85f31461057857005b8063a7ccabdf116100c8578063a7ccabdf14610486578063aaf51b7e146104a6578063aca20f07146104bc578063b20f2edb146104eb57005b80638da5cb5b146103ee57806391f76419146104265780639703ef3514610446578063a5cd761f1461046657005b80633912fc8511610168578063607133a01161013a578063607133a014610379578063632541b41461038e5780637e835997146103ae578063836cf6e9146103ce57005b80633912fc85146102ab5780633ccfd60b146102cb5780633f1ffcec146102e057806357c90de51461035957005b806314cb423f116101a157806314cb423f1461022d578063305a67a81461024d578063319ec7fd1461026d5780633606f5b91461029657005b80630179ea88146101cd57806302068664146101ed57806313af40351461020d57005b366101cb57005b005b3480156101d957600080fd5b506101cb6101e83660046121df565b610663565b3480156101f957600080fd5b506101cb610208366004612219565b610747565b34801561021957600080fd5b506101cb610228366004612249565b610a80565b34801561023957600080fd5b506101cb6102483660046122b9565b610af4565b34801561025957600080fd5b506101cb610268366004612305565b610da4565b34801561027957600080fd5b5061028360055481565b6040519081526020015b60405180910390f35b3480156102a257600080fd5b506101cb610f0b565b3480156102b757600080fd5b506101cb6102c6366004612305565b610f44565b3480156102d757600080fd5b506101cb611309565b3480156102ec57600080fd5b506103346102fb366004612219565b6002602090815260009283526040808420909152908252902080546001909101546001600160a01b03811690600160a01b900460ff1683565b604080519384526001600160a01b03909216602084015215159082015260600161028d565b34801561036557600080fd5b506101cb6103743660046121df565b6113d1565b34801561038557600080fd5b506101cb6116ca565b34801561039a57600080fd5b506101cb6103a9366004612305565b611705565b3480156103ba57600080fd5b506101cb6103c936600461231e565b6117e6565b3480156103da57600080fd5b506101cb6103e93660046121df565b611b43565b3480156103fa57600080fd5b5060075461040e906001600160a01b031681565b6040516001600160a01b03909116815260200161028d565b34801561043257600080fd5b506101cb610441366004612305565b611c53565b34801561045257600080fd5b506101cb610461366004612305565b611cad565b34801561047257600080fd5b5061040e610481366004612305565b611e0d565b34801561049257600080fd5b506101cb6104a1366004612249565b611eba565b3480156104b257600080fd5b5061028360035481565b3480156104c857600080fd5b506004546104db90610100900460ff1681565b604051901515815260200161028d565b3480156104f757600080fd5b5061050b610506366004612360565b611f06565b60405161028d91906123b5565b34801561052457600080fd5b506105386105333660046121df565b612026565b60405161028d9190612419565b34801561055157600080fd5b506101cb61210c565b34801561056657600080fd5b50610283610575366004612305565b90565b34801561058457600080fd5b506004546104db9060ff1681565b34801561059e57600080fd5b506102836105ad366004612470565b612142565b3480156105be57600080fd5b506105fc6105cd366004612305565b600660205260009081526040902080546001909101546001600160a01b03821691600160a01b900460ff169083565b604080516001600160a01b03909416845291151560208401529082015260600161028d565b34801561062d57600080fd5b5061064161063c366004612249565b612173565b60405161028d919061249c565b34801561065a57600080fd5b50600554610283565b60045460ff1661068657604051636b411a7f60e11b815260040160405180910390fd5b600082815260066020526040902054600160a01b900460ff166106bc5760405163aa41c14760e01b815260040160405180910390fd5b6000828152600660205260409020546001600160a01b031633146106f3576040516349e27cff60e01b815260040160405180910390fd5b600082815260066020526040908190206001018290555182907fc722c86d457c19a3b0a9a34f38bfefc93a93ebe5ef3d2e0e5eba1b1de4636dbf9061073b9084815260200190565b60405180910390a25050565b60045460ff1661076a57604051636b411a7f60e11b815260040160405180910390fd5b600061077583611e0d565b9050336001600160a01b038216146107a0576040516349e27cff60e01b815260040160405180910390fd5b60008381526002602090815260408083206001600160a01b0386168452909152902060010154600160a01b900460ff166107ed57604051630bd46a3f60e21b815260040160405180910390fd5b60008381526002602090815260408083206001600160a01b038616845282528083208054848255600190910180546001600160a81b0319169055868452600690925290912054600160a01b900460ff16156108f95760008481526006602052604080822080546001600160a81b0319168155600101829055905490516323b872dd60e01b81526001600160a01b03909116906323b872dd90610897903090879089906004016124e0565b600060405180830381600087803b1580156108b157600080fd5b505af11580156108c5573d6000803e3d6000fd5b50506040518692507f7de7556a16e38538b177be3ce0ca95ecb5b05b8b9d2a99524814f5a96c611f449150600090a2610960565b6000546040516323b872dd60e01b81526001600160a01b03909116906323b872dd9061092d908590879089906004016124e0565b600060405180830381600087803b15801561094757600080fd5b505af115801561095b573d6000803e3d6000fd5b505050505b6000606460035483610972919061251a565b61097c9190612539565b9050600061098a828461255b565b9050816005600082825461099e9190612572565b909155505060405163a9059cbb60e01b81526001600160a01b038581166004830152602482018390527f0000000000000000000000000000000000000000000000000000000000000000169063a9059cbb906044016020604051808303816000875af1158015610a12573d6000803e3d6000fd5b505050506040513d601f19601f82011682018060405250810190610a36919061258a565b50604080518781526001600160a01b03871660208201527f91594e8331c06f34ac23cba9df8cbff0f4830fa8ea80fa64c9180527ecce04db910160405180910390a1505050505050565b6007546001600160a01b03163314610aaa576040516282b42960e81b815260040160405180910390fd5b600780546001600160a01b0319166001600160a01b0383169081179091556040517f4ffd725fc4a22075e9ec71c59edf9c38cdeb588a91b24fc5b61388c5be41282b90600090a250565b600080546040516331a9108f60e11b8152600481018490526001600160a01b0390911690636352211e90602401602060405180830381865afa158015610b3e573d6000803e3d6000fd5b505050506040513d601f19601f82011682018060405250810190610b6291906125ac565b6001600160a01b031603610d9f5760005b82811015610d9d57600082815260026020526040812090858584818110610b9c57610b9c6125c9565b9050602002016020810190610bb19190612249565b6001600160a01b03168152602081019190915260400160002060010154600160a01b900460ff1615610d8d57600082815260026020526040812081868685818110610bfe57610bfe6125c9565b9050602002016020810190610c139190612249565b6001600160a01b0316815260208082019290925260409081016000908120548682526002909352908120919250868685818110610c5257610c526125c9565b9050602002016020810190610c679190612249565b6001600160a01b0390811682526020820192909252604001600090812090815560010180546001600160a81b03191690557f00000000000000000000000000000000000000000000000000000000000000001663a9059cbb868685818110610cd157610cd16125c9565b9050602002016020810190610ce69190612249565b6040516001600160e01b031960e084901b1681526001600160a01b039091166004820152602481018490526044016020604051808303816000875af1158015610d33573d6000803e3d6000fd5b505050506040513d601f19601f82011682018060405250810190610d57919061258a565b506040518381527fea584e561a81fee408b492e6fd7d8a696c3ae338e97b07d5d0809f53731d31c99060200160405180910390a1505b610d96816125df565b9050610b73565b505b505050565b60045460ff16610dc757604051636b411a7f60e11b815260040160405180910390fd5b600081815260066020908152604091829020825160608101845281546001600160a01b0381168252600160a01b900460ff16151592810183905260019091015492810192909252610e2b5760405163aa41c14760e01b815260040160405180910390fd5b80516001600160a01b03163314610e55576040516349e27cff60e01b815260040160405180910390fd5b60008281526006602052604080822080546001600160a81b03191681556001018290559054825191516323b872dd60e01b81526001600160a01b03909116916323b872dd91610eaa91309187906004016124e0565b600060405180830381600087803b158015610ec457600080fd5b505af1158015610ed8573d6000803e3d6000fd5b50506040518492507f7de7556a16e38538b177be3ce0ca95ecb5b05b8b9d2a99524814f5a96c611f449150600090a25050565b6007546001600160a01b03163314610f35576040516282b42960e81b815260040160405180910390fd5b6004805460ff19166001179055565b60045460ff16610f6757604051636b411a7f60e11b815260040160405180910390fd5b600081815260066020908152604091829020825160608101845281546001600160a01b0381168252600160a01b900460ff16151592810183905260019091015492810192909252610fcb5760405163aa41c14760e01b815260040160405180910390fd5b80516001600160a01b03163303610ff5576040516349e27cff60e01b815260040160405180910390fd5b60408181015190516370a0823160e01b81523360048201527f00000000000000000000000000000000000000000000000000000000000000006001600160a01b0316906370a0823190602401602060405180830381865afa15801561105e573d6000803e3d6000fd5b505050506040513d601f19601f8201168201806040525081019061108291906125f8565b10156110a15760405163044044a560e21b815260040160405180910390fd5b60008281526006602052604080822080546001600160a81b031916815560010191909155600354908201516064916110d89161251a565b6110e29190612539565b600560008282546110f39190612572565b9091555050805160035460408301516001600160a01b037f000000000000000000000000000000000000000000000000000000000000000016926323b872dd9233926064916111419161251a565b61114b9190612539565b856040015161115a919061255b565b6040518463ffffffff1660e01b8152600401611178939291906124e0565b6020604051808303816000875af1158015611197573d6000803e3d6000fd5b505050506040513d601f19601f820116820180604052508101906111bb919061258a565b507f00000000000000000000000000000000000000000000000000000000000000006001600160a01b03166323b872dd333060646003548660400151611201919061251a565b61120b9190612539565b6040518463ffffffff1660e01b8152600401611229939291906124e0565b6020604051808303816000875af1158015611248573d6000803e3d6000fd5b505050506040513d601f19601f8201168201806040525081019061126c919061258a565b506000546040516323b872dd60e01b81526001600160a01b03909116906323b872dd906112a1903090339087906004016124e0565b600060405180830381600087803b1580156112bb57600080fd5b505af11580156112cf573d6000803e3d6000fd5b50505050817f118430d9f151031f078659241fee1f24ab174df05b0a79d498c842619dba52a8826040015160405161073b91815260200190565b6007546001600160a01b03163314611333576040516282b42960e81b815260040160405180910390fd5b60058054600090915560405163a9059cbb60e01b8152336004820152602481018290527f00000000000000000000000000000000000000000000000000000000000000006001600160a01b03169063a9059cbb906044016020604051808303816000875af11580156113a9573d6000803e3d6000fd5b505050506040513d601f19601f820116820180604052508101906113cd919061258a565b5050565b60045460ff166113f457604051636b411a7f60e11b815260040160405180910390fd5b60006113ff83611e0d565b90506001600160a01b03811633036114685760405162461bcd60e51b815260206004820152602160248201527f43616e277420706c6163652062696420666f72206f776e20626c75657072696e6044820152601d60fa1b60648201526084015b60405180910390fd5b6000838152600260209081526040808320338452909152902060010154600160a01b900460ff16156114ad57604051639874ffed60e01b815260040160405180910390fd5b6040516370a0823160e01b815233600482015282907f00000000000000000000000000000000000000000000000000000000000000006001600160a01b0316906370a0823190602401602060405180830381865afa158015611513573d6000803e3d6000fd5b505050506040513d601f19601f8201168201806040525081019061153791906125f8565b10156115565760405163044044a560e21b815260040160405180910390fd5b6040516323b872dd60e01b81526001600160a01b037f000000000000000000000000000000000000000000000000000000000000000016906323b872dd906115a6903390309087906004016124e0565b6020604051808303816000875af11580156115c5573d6000803e3d6000fd5b505050506040513d601f19601f820116820180604052508101906115e9919061258a565b5060408051606081018252838152336020808301828152600184860181815260008a8152600285528781209581529490935292859020935184555192909101805491511515600160a01b026001600160a81b03199092166001600160a01b039390931692909217179055517fe326f7d5efb071741624b020ca7f125e12df1af0c31afbf1039ebe65f16aec6e9061169f9085908590859092835260208301919091526001600160a01b0316604082015260600190565b60405180910390a1505033600090815260016020818152604083208054928301815583529091200155565b6007546001600160a01b031633146116f4576040516282b42960e81b815260040160405180910390fd5b6004805461ff001916610100179055565b600454610100900460ff16801561171f575060045460ff16155b6117605760405162461bcd60e51b815260206004820152601260248201527127b7363c9034b71032b6b2b933b2b731bc9760711b604482015260640161145f565b6000818152600660208181526040808420815160608101835281546001600160a01b03808216835260ff600160a01b83041615158387015260018401805484870152898952969095526001600160a81b031916909155928490559254825193516323b872dd60e01b815292939116916323b872dd91610eaa9130919087906004016124e0565b60045460ff1661180957604051636b411a7f60e11b815260040160405180910390fd5b60005b81811015610d9f576000838383818110611828576118286125c9565b60209081029290920135600081815260068452604090819020815160608101835281546001600160a01b038116808352600160a01b90910460ff1615159682019690965260019091015491810191909152909350913303905061189e576040516349e27cff60e01b815260040160405180910390fd5b80602001516118c05760405163aa41c14760e01b815260040160405180910390fd5b60008281526006602052604080822080546001600160a81b031916815560010191909155600354908201516064916118f79161251a565b6119019190612539565b600560008282546119129190612572565b9091555050805160035460408301516001600160a01b037f000000000000000000000000000000000000000000000000000000000000000016926323b872dd9233926064916119609161251a565b61196a9190612539565b8560400151611979919061255b565b6040518463ffffffff1660e01b8152600401611997939291906124e0565b6020604051808303816000875af11580156119b6573d6000803e3d6000fd5b505050506040513d601f19601f820116820180604052508101906119da919061258a565b507f00000000000000000000000000000000000000000000000000000000000000006001600160a01b03166323b872dd333060646003548660400151611a20919061251a565b611a2a9190612539565b6040518463ffffffff1660e01b8152600401611a48939291906124e0565b6020604051808303816000875af1158015611a67573d6000803e3d6000fd5b505050506040513d601f19601f82011682018060405250810190611a8b919061258a565b506000546040516323b872dd60e01b81526001600160a01b03909116906323b872dd90611ac0903090339087906004016124e0565b600060405180830381600087803b158015611ada57600080fd5b505af1158015611aee573d6000803e3d6000fd5b50505050817f118430d9f151031f078659241fee1f24ab174df05b0a79d498c842619dba52a88260400151604051611b2891815260200190565b60405180910390a2505080611b3c906125df565b905061180c565b60045460ff16611b6657604051636b411a7f60e11b815260040160405180910390fd5b604080516060810182523380825260016020808401828152848601878152600089815260069093528683209551865492511515600160a01b026001600160a81b03199093166001600160a01b0391821617929092178655519490920193909355915492516323b872dd60e01b815292909116916323b872dd91611bef91309087906004016124e0565b600060405180830381600087803b158015611c0957600080fd5b505af1158015611c1d573d6000803e3d6000fd5b50505050817f6e5f7e638173bd2538c34c8893d3046f00726f1d62961c9407f64808e7f77f9b8260405161073b91815260200190565b6007546001600160a01b03163314611c7d576040516282b42960e81b815260040160405180910390fd5b6064811180611c8a575060005b15611ca85760405163c0dfb3e560e01b815260040160405180910390fd5b600355565b60045460ff16611cd057604051636b411a7f60e11b815260040160405180910390fd5b6000818152600260209081526040808320338452909152902060010154600160a01b900460ff16611d1457604051630bd46a3f60e21b815260040160405180910390fd5b6000818152600260209081526040808320338085529252808320805493815560010180546001600160a81b03191690555163a9059cbb60e01b81526004810191909152602481018290526001600160a01b037f0000000000000000000000000000000000000000000000000000000000000000169063a9059cbb906044016020604051808303816000875af1158015611db1573d6000803e3d6000fd5b505050506040513d601f19601f82011682018060405250810190611dd5919061258a565b506040518281527fea584e561a81fee408b492e6fd7d8a696c3ae338e97b07d5d0809f53731d31c99060200160405180910390a15050565b600081815260066020526040812054600160a01b900460ff1615611e4757506000908152600660205260409020546001600160a01b031690565b6000546040516331a9108f60e11b8152600481018490526001600160a01b0390911690636352211e90602401602060405180830381865afa158015611e90573d6000803e3d6000fd5b505050506040513d601f19601f82011682018060405250810190611eb491906125ac565b92915050565b6007546001600160a01b03163314611ee4576040516282b42960e81b815260040160405180910390fd5b600080546001600160a01b0319166001600160a01b0392909216919091179055565b60608167ffffffffffffffff811115611f2157611f21612611565b604051908082528060200260200182016040528015611f6c57816020015b6040805160608101825260008082526020808301829052928201528252600019909201910181611f3f5790505b50905060005b8281101561201e576000848483818110611f8e57611f8e6125c9565b6020908102929092013560008181526002845260408082206001600160a01b038c811684529086529181902081516060810183528154815260019091015492831695810195909552600160a01b90910460ff16151590840152855190935085915084908110611fff57611fff6125c9565b6020026020010181905250508080612016906125df565b915050611f72565b509392505050565b606060008267ffffffffffffffff81111561204357612043612611565b60405190808252806020026020018201604052801561208e57816020015b60408051606081018252600080825260208083018290529282015282526000199092019101816120615790505b50905060005b8381101561201e57808501600090815260066020908152604091829020825160608101845281546001600160a01b0381168252600160a01b900460ff16151592810192909252600101549181019190915282518390839081106120f9576120f96125c9565b6020908102919091010152600101612094565b6007546001600160a01b03163314612136576040516282b42960e81b815260040160405180910390fd5b6004805460ff19169055565b6001602052816000526040600020818154811061215e57600080fd5b90600052602060002001600091509150505481565b6001600160a01b0381166000908152600160209081526040918290208054835181840281018401909452808452606093928301828280156121d357602002820191906000526020600020905b8154815260200190600101908083116121bf575b50505050509050919050565b600080604083850312156121f257600080fd5b50508035926020909101359150565b6001600160a01b038116811461221657600080fd5b50565b6000806040838503121561222c57600080fd5b82359150602083013561223e81612201565b809150509250929050565b60006020828403121561225b57600080fd5b813561226681612201565b9392505050565b60008083601f84011261227f57600080fd5b50813567ffffffffffffffff81111561229757600080fd5b6020830191508360208260051b85010111156122b257600080fd5b9250929050565b6000806000604084860312156122ce57600080fd5b833567ffffffffffffffff8111156122e557600080fd5b6122f18682870161226d565b909790965060209590950135949350505050565b60006020828403121561231757600080fd5b5035919050565b6000806020838503121561233157600080fd5b823567ffffffffffffffff81111561234857600080fd5b6123548582860161226d565b90969095509350505050565b60008060006040848603121561237557600080fd5b833561238081612201565b9250602084013567ffffffffffffffff81111561239c57600080fd5b6123a88682870161226d565b9497909650939450505050565b602080825282518282018190526000919060409081850190868401855b8281101561240c57815180518552868101516001600160a01b031687860152850151151585850152606090930192908501906001016123d2565b5091979650505050505050565b602080825282518282018190526000919060409081850190868401855b8281101561240c57815180516001600160a01b03168552868101511515878601528501518585015260609093019290850190600101612436565b6000806040838503121561248357600080fd5b823561248e81612201565b946020939093013593505050565b6020808252825182820181905260009190848201906040850190845b818110156124d4578351835292840192918401916001016124b8565b50909695505050505050565b6001600160a01b039384168152919092166020820152604081019190915260600190565b634e487b7160e01b600052601160045260246000fd5b600081600019048311821515161561253457612534612504565b500290565b60008261255657634e487b7160e01b600052601260045260246000fd5b500490565b60008282101561256d5761256d612504565b500390565b6000821982111561258557612585612504565b500190565b60006020828403121561259c57600080fd5b8151801515811461226657600080fd5b6000602082840312156125be57600080fd5b815161226681612201565b634e487b7160e01b600052603260045260246000fd5b6000600182016125f1576125f1612504565b5060010190565b60006020828403121561260a57600080fd5b5051919050565b634e487b7160e01b600052604160045260246000fdfea26469706673582212209720f6fab11ed84ded28a9518a8c3b350d5eb6b0012c6165aa75b28a588c264464736f6c634300080d0033",
    "linkReferences": {}
  }
}